{
  "_format": "hh-sol-artifact-1",
  "contractName": "CryptoFacesNFT",
  "sourceName": "contracts/NFT.sol",
  "abi": [
    {
      "inputs": [
        {
          "internalType": "string",
          "name": "name",
          "type": "string"
        },
        {
          "internalType": "string",
          "name": "symbol",
          "type": "string"
        }
      ],
      "stateMutability": "nonpayable",
      "type": "constructor"
    },
    {
      "anonymous": false,
      "inputs": [
        {
          "indexed": true,
          "internalType": "address",
          "name": "owner",
          "type": "address"
        },
        {
          "indexed": true,
          "internalType": "address",
          "name": "approved",
          "type": "address"
        },
        {
          "indexed": true,
          "internalType": "uint256",
          "name": "tokenId",
          "type": "uint256"
        }
      ],
      "name": "Approval",
      "type": "event"
    },
    {
      "anonymous": false,
      "inputs": [
        {
          "indexed": true,
          "internalType": "address",
          "name": "owner",
          "type": "address"
        },
        {
          "indexed": true,
          "internalType": "address",
          "name": "operator",
          "type": "address"
        },
        {
          "indexed": false,
          "internalType": "bool",
          "name": "approved",
          "type": "bool"
        }
      ],
      "name": "ApprovalForAll",
      "type": "event"
    },
    {
      "anonymous": false,
      "inputs": [
        {
          "indexed": false,
          "internalType": "uint256",
          "name": "tokenId",
          "type": "uint256"
        },
        {
          "components": [
            {
              "internalType": "uint256",
              "name": "cryptoFaceIndex",
              "type": "uint256"
            },
            {
              "internalType": "string",
              "name": "name",
              "type": "string"
            },
            {
              "internalType": "string",
              "name": "description",
              "type": "string"
            },
            {
              "internalType": "string",
              "name": "imageURI",
              "type": "string"
            },
            {
              "internalType": "uint256",
              "name": "legendaryHypeLevel",
              "type": "uint256"
            },
            {
              "internalType": "uint256",
              "name": "hypeLevel",
              "type": "uint256"
            },
            {
              "internalType": "uint256",
              "name": "hypeValue",
              "type": "uint256"
            }
          ],
          "indexed": false,
          "internalType": "struct GameModel.Character",
          "name": "player",
          "type": "tuple"
        }
      ],
      "name": "InfoUpdated",
      "type": "event"
    },
    {
      "anonymous": false,
      "inputs": [
        {
          "indexed": false,
          "internalType": "uint256",
          "name": "tokenId",
          "type": "uint256"
        },
        {
          "components": [
            {
              "internalType": "uint256",
              "name": "cryptoFaceIndex",
              "type": "uint256"
            },
            {
              "internalType": "string",
              "name": "name",
              "type": "string"
            },
            {
              "internalType": "string",
              "name": "description",
              "type": "string"
            },
            {
              "internalType": "string",
              "name": "imageURI",
              "type": "string"
            },
            {
              "internalType": "uint256",
              "name": "legendaryHypeLevel",
              "type": "uint256"
            },
            {
              "internalType": "uint256",
              "name": "hypeLevel",
              "type": "uint256"
            },
            {
              "internalType": "uint256",
              "name": "hypeValue",
              "type": "uint256"
            }
          ],
          "indexed": false,
          "internalType": "struct GameModel.Character",
          "name": "player",
          "type": "tuple"
        }
      ],
      "name": "LegendaryLevelUpdated",
      "type": "event"
    },
    {
      "anonymous": false,
      "inputs": [
        {
          "indexed": false,
          "internalType": "uint256",
          "name": "tokenId",
          "type": "uint256"
        },
        {
          "components": [
            {
              "internalType": "uint256",
              "name": "cryptoFaceIndex",
              "type": "uint256"
            },
            {
              "internalType": "string",
              "name": "name",
              "type": "string"
            },
            {
              "internalType": "string",
              "name": "description",
              "type": "string"
            },
            {
              "internalType": "string",
              "name": "imageURI",
              "type": "string"
            },
            {
              "internalType": "uint256",
              "name": "legendaryHypeLevel",
              "type": "uint256"
            },
            {
              "internalType": "uint256",
              "name": "hypeLevel",
              "type": "uint256"
            },
            {
              "internalType": "uint256",
              "name": "hypeValue",
              "type": "uint256"
            }
          ],
          "indexed": false,
          "internalType": "struct GameModel.Character",
          "name": "player",
          "type": "tuple"
        }
      ],
      "name": "LevelUpdated",
      "type": "event"
    },
    {
      "anonymous": false,
      "inputs": [
        {
          "indexed": true,
          "internalType": "address",
          "name": "from",
          "type": "address"
        },
        {
          "indexed": true,
          "internalType": "address",
          "name": "to",
          "type": "address"
        },
        {
          "indexed": true,
          "internalType": "uint256",
          "name": "tokenId",
          "type": "uint256"
        }
      ],
      "name": "Transfer",
      "type": "event"
    },
    {
      "inputs": [
        {
          "internalType": "address",
          "name": "to",
          "type": "address"
        },
        {
          "internalType": "uint256",
          "name": "tokenId",
          "type": "uint256"
        }
      ],
      "name": "approve",
      "outputs": [],
      "stateMutability": "nonpayable",
      "type": "function"
    },
    {
      "inputs": [
        {
          "internalType": "address",
          "name": "owner",
          "type": "address"
        }
      ],
      "name": "balanceOf",
      "outputs": [
        {
          "internalType": "uint256",
          "name": "",
          "type": "uint256"
        }
      ],
      "stateMutability": "view",
      "type": "function"
    },
    {
      "inputs": [
        {
          "internalType": "uint256",
          "name": "",
          "type": "uint256"
        }
      ],
      "name": "characterNFTs",
      "outputs": [
        {
          "internalType": "uint256",
          "name": "cryptoFaceIndex",
          "type": "uint256"
        },
        {
          "internalType": "string",
          "name": "name",
          "type": "string"
        },
        {
          "internalType": "string",
          "name": "description",
          "type": "string"
        },
        {
          "internalType": "string",
          "name": "imageURI",
          "type": "string"
        },
        {
          "internalType": "uint256",
          "name": "legendaryHypeLevel",
          "type": "uint256"
        },
        {
          "internalType": "uint256",
          "name": "hypeLevel",
          "type": "uint256"
        },
        {
          "internalType": "uint256",
          "name": "hypeValue",
          "type": "uint256"
        }
      ],
      "stateMutability": "view",
      "type": "function"
    },
    {
      "inputs": [
        {
          "internalType": "uint256",
          "name": "tokenId",
          "type": "uint256"
        }
      ],
      "name": "getApproved",
      "outputs": [
        {
          "internalType": "address",
          "name": "",
          "type": "address"
        }
      ],
      "stateMutability": "view",
      "type": "function"
    },
    {
      "inputs": [
        {
          "internalType": "uint256",
          "name": "id",
          "type": "uint256"
        }
      ],
      "name": "getById",
      "outputs": [
        {
          "components": [
            {
              "internalType": "uint256",
              "name": "cryptoFaceIndex",
              "type": "uint256"
            },
            {
              "internalType": "string",
              "name": "name",
              "type": "string"
            },
            {
              "internalType": "string",
              "name": "description",
              "type": "string"
            },
            {
              "internalType": "string",
              "name": "imageURI",
              "type": "string"
            },
            {
              "internalType": "uint256",
              "name": "legendaryHypeLevel",
              "type": "uint256"
            },
            {
              "internalType": "uint256",
              "name": "hypeLevel",
              "type": "uint256"
            },
            {
              "internalType": "uint256",
              "name": "hypeValue",
              "type": "uint256"
            }
          ],
          "internalType": "struct GameModel.Character",
          "name": "",
          "type": "tuple"
        }
      ],
      "stateMutability": "view",
      "type": "function"
    },
    {
      "inputs": [
        {
          "internalType": "address",
          "name": "_owner",
          "type": "address"
        }
      ],
      "name": "getOwnerNFTs",
      "outputs": [
        {
          "components": [
            {
              "internalType": "uint256",
              "name": "cryptoFaceIndex",
              "type": "uint256"
            },
            {
              "internalType": "string",
              "name": "name",
              "type": "string"
            },
            {
              "internalType": "string",
              "name": "description",
              "type": "string"
            },
            {
              "internalType": "string",
              "name": "imageURI",
              "type": "string"
            },
            {
              "internalType": "uint256",
              "name": "legendaryHypeLevel",
              "type": "uint256"
            },
            {
              "internalType": "uint256",
              "name": "hypeLevel",
              "type": "uint256"
            },
            {
              "internalType": "uint256",
              "name": "hypeValue",
              "type": "uint256"
            }
          ],
          "internalType": "struct GameModel.Character[]",
          "name": "",
          "type": "tuple[]"
        }
      ],
      "stateMutability": "view",
      "type": "function"
    },
    {
      "inputs": [],
      "name": "getTotalCollection",
      "outputs": [
        {
          "internalType": "uint256",
          "name": "",
          "type": "uint256"
        }
      ],
      "stateMutability": "view",
      "type": "function"
    },
    {
      "inputs": [
        {
          "internalType": "address",
          "name": "",
          "type": "address"
        }
      ],
      "name": "holders",
      "outputs": [
        {
          "internalType": "uint256",
          "name": "",
          "type": "uint256"
        }
      ],
      "stateMutability": "view",
      "type": "function"
    },
    {
      "inputs": [
        {
          "internalType": "address",
          "name": "owner",
          "type": "address"
        },
        {
          "internalType": "address",
          "name": "operator",
          "type": "address"
        }
      ],
      "name": "isApprovedForAll",
      "outputs": [
        {
          "internalType": "bool",
          "name": "",
          "type": "bool"
        }
      ],
      "stateMutability": "view",
      "type": "function"
    },
    {
      "inputs": [
        {
          "components": [
            {
              "internalType": "uint256",
              "name": "cryptoFaceIndex",
              "type": "uint256"
            },
            {
              "internalType": "string",
              "name": "name",
              "type": "string"
            },
            {
              "internalType": "string",
              "name": "description",
              "type": "string"
            },
            {
              "internalType": "string",
              "name": "imageURI",
              "type": "string"
            },
            {
              "internalType": "uint256",
              "name": "legendaryHypeLevel",
              "type": "uint256"
            },
            {
              "internalType": "uint256",
              "name": "hypeLevel",
              "type": "uint256"
            },
            {
              "internalType": "uint256",
              "name": "hypeValue",
              "type": "uint256"
            }
          ],
          "internalType": "struct GameModel.Character",
          "name": "character",
          "type": "tuple"
        }
      ],
      "name": "mintNFT",
      "outputs": [
        {
          "internalType": "uint256",
          "name": "",
          "type": "uint256"
        }
      ],
      "stateMutability": "nonpayable",
      "type": "function"
    },
    {
      "inputs": [],
      "name": "name",
      "outputs": [
        {
          "internalType": "string",
          "name": "",
          "type": "string"
        }
      ],
      "stateMutability": "view",
      "type": "function"
    },
    {
      "inputs": [
        {
          "internalType": "uint256",
          "name": "tokenId",
          "type": "uint256"
        }
      ],
      "name": "ownerOf",
      "outputs": [
        {
          "internalType": "address",
          "name": "",
          "type": "address"
        }
      ],
      "stateMutability": "view",
      "type": "function"
    },
    {
      "inputs": [
        {
          "internalType": "address",
          "name": "from",
          "type": "address"
        },
        {
          "internalType": "address",
          "name": "to",
          "type": "address"
        },
        {
          "internalType": "uint256",
          "name": "tokenId",
          "type": "uint256"
        }
      ],
      "name": "safeTransferFrom",
      "outputs": [],
      "stateMutability": "nonpayable",
      "type": "function"
    },
    {
      "inputs": [
        {
          "internalType": "address",
          "name": "from",
          "type": "address"
        },
        {
          "internalType": "address",
          "name": "to",
          "type": "address"
        },
        {
          "internalType": "uint256",
          "name": "tokenId",
          "type": "uint256"
        },
        {
          "internalType": "bytes",
          "name": "_data",
          "type": "bytes"
        }
      ],
      "name": "safeTransferFrom",
      "outputs": [],
      "stateMutability": "nonpayable",
      "type": "function"
    },
    {
      "inputs": [
        {
          "internalType": "address",
          "name": "operator",
          "type": "address"
        },
        {
          "internalType": "bool",
          "name": "approved",
          "type": "bool"
        }
      ],
      "name": "setApprovalForAll",
      "outputs": [],
      "stateMutability": "nonpayable",
      "type": "function"
    },
    {
      "inputs": [
        {
          "internalType": "bytes4",
          "name": "interfaceId",
          "type": "bytes4"
        }
      ],
      "name": "supportsInterface",
      "outputs": [
        {
          "internalType": "bool",
          "name": "",
          "type": "bool"
        }
      ],
      "stateMutability": "view",
      "type": "function"
    },
    {
      "inputs": [],
      "name": "symbol",
      "outputs": [
        {
          "internalType": "string",
          "name": "",
          "type": "string"
        }
      ],
      "stateMutability": "view",
      "type": "function"
    },
    {
      "inputs": [
        {
          "internalType": "uint256",
          "name": "tokenId",
          "type": "uint256"
        }
      ],
      "name": "tokenURI",
      "outputs": [
        {
          "internalType": "string",
          "name": "",
          "type": "string"
        }
      ],
      "stateMutability": "view",
      "type": "function"
    },
    {
      "inputs": [
        {
          "internalType": "address",
          "name": "from",
          "type": "address"
        },
        {
          "internalType": "address",
          "name": "to",
          "type": "address"
        },
        {
          "internalType": "uint256",
          "name": "tokenId",
          "type": "uint256"
        }
      ],
      "name": "transferFrom",
      "outputs": [],
      "stateMutability": "nonpayable",
      "type": "function"
    },
    {
      "inputs": [
        {
          "internalType": "uint256",
          "name": "tokenId",
          "type": "uint256"
        },
        {
          "internalType": "string",
          "name": "characterName",
          "type": "string"
        },
        {
          "internalType": "string",
          "name": "characterDescription",
          "type": "string"
        }
      ],
      "name": "updateCharacterInfo",
      "outputs": [],
      "stateMutability": "payable",
      "type": "function"
    },
    {
      "inputs": [
        {
          "internalType": "uint256",
          "name": "tokenId",
          "type": "uint256"
        }
      ],
      "name": "upgradeFace",
      "outputs": [],
      "stateMutability": "payable",
      "type": "function"
    },
    {
      "inputs": [
        {
          "internalType": "uint256",
          "name": "tokenId",
          "type": "uint256"
        }
      ],
      "name": "upgradeLegendaryLevel",
      "outputs": [],
      "stateMutability": "payable",
      "type": "function"
    }
  ],
  "bytecode": "0x60806040523480156200001157600080fd5b50604051620047e8380380620047e88339818101604052810190620000379190620002ae565b81818160009080519060200190620000519291906200018c565b5080600190805190602001906200006a9291906200018c565b505050620000b86040518060400160405280601081526020017f4e465420696e697469616c697a65642100000000000000000000000000000000815250620000c060201b620019c31760201c565b5050620004e4565b6200016081604051602401620000d7919062000362565b6040516020818303038152906040527f41304fac000000000000000000000000000000000000000000000000000000007bffffffffffffffffffffffffffffffffffffffffffffffffffffffff19166020820180517bffffffffffffffffffffffffffffffffffffffffffffffffffffffff83818316178352505050506200016360201b60201c565b50565b60008151905060006a636f6e736f6c652e6c6f679050602083016000808483855afa5050505050565b8280546200019a906200043f565b90600052602060002090601f016020900481019282620001be57600085556200020a565b82601f10620001d957805160ff19168380011785556200020a565b828001600101855582156200020a579182015b8281111562000209578251825591602001919060010190620001ec565b5b5090506200021991906200021d565b5090565b5b80821115620002385760008160009055506001016200021e565b5090565b6000620002536200024d84620003ba565b62000386565b9050828152602081018484840111156200026c57600080fd5b6200027984828562000409565b509392505050565b600082601f8301126200029357600080fd5b8151620002a58482602086016200023c565b91505092915050565b60008060408385031215620002c257600080fd5b600083015167ffffffffffffffff811115620002dd57600080fd5b620002eb8582860162000281565b925050602083015167ffffffffffffffff8111156200030957600080fd5b620003178582860162000281565b9150509250929050565b60006200032e82620003ed565b6200033a8185620003f8565b93506200034c81856020860162000409565b6200035781620004d3565b840191505092915050565b600060208201905081810360008301526200037e818462000321565b905092915050565b6000604051905081810181811067ffffffffffffffff82111715620003b057620003af620004a4565b5b8060405250919050565b600067ffffffffffffffff821115620003d857620003d7620004a4565b5b601f19601f8301169050602081019050919050565b600081519050919050565b600082825260208201905092915050565b60005b83811015620004295780820151818401526020810190506200040c565b8381111562000439576000848401525b50505050565b600060028204905060018216806200045857607f821691505b602082108114156200046f576200046e62000475565b5b50919050565b7f4e487b7100000000000000000000000000000000000000000000000000000000600052602260045260246000fd5b7f4e487b7100000000000000000000000000000000000000000000000000000000600052604160045260246000fd5b6000601f19601f8301169050919050565b6142f480620004f46000396000f3fe6080604052600436106101355760003560e01c80638c017572116100ab578063bf5e461a1161006f578063bf5e461a1461042e578063c87b56dd1461046b578063ddc2c278146104a8578063e985e9c5146104c4578063f4f4d23714610501578063fef190661461053e57610135565b80638c017572146103585780638ce3638a1461039557806395d89b41146103b1578063a22cb465146103dc578063b88d4fde1461040557610135565b806323b872dd116100fd57806323b872dd1461024557806342842e0e1461026e578063459dcbc3146102975780636352211e146102c25780636ba61b25146102ff57806370a082311461031b57610135565b806301ffc9a71461013a57806306fdde0314610177578063081812fc146101a2578063095ea7b3146101df57806318a5bbdc14610208575b600080fd5b34801561014657600080fd5b50610161600480360381019061015c9190612d9a565b610581565b60405161016e9190613a20565b60405180910390f35b34801561018357600080fd5b5061018c610663565b6040516101999190613a3b565b60405180910390f35b3480156101ae57600080fd5b506101c960048036038101906101c49190612e2d565b6106f5565b6040516101d69190613997565b60405180910390f35b3480156101eb57600080fd5b5061020660048036038101906102019190612d5e565b61077a565b005b34801561021457600080fd5b5061022f600480360381019061022a9190612bf3565b610892565b60405161023c9190613d1b565b60405180910390f35b34801561025157600080fd5b5061026c60048036038101906102679190612c58565b6108aa565b005b34801561027a57600080fd5b5061029560048036038101906102909190612c58565b61090a565b005b3480156102a357600080fd5b506102ac61092a565b6040516102b99190613d1b565b60405180910390f35b3480156102ce57600080fd5b506102e960048036038101906102e49190612e2d565b61093b565b6040516102f69190613997565b60405180910390f35b61031960048036038101906103149190612e2d565b6109ed565b005b34801561032757600080fd5b50610342600480360381019061033d9190612bf3565b610b0b565b60405161034f9190613d1b565b60405180910390f35b34801561036457600080fd5b5061037f600480360381019061037a9190612bf3565b610bc3565b60405161038c91906139fe565b60405180910390f35b6103af60048036038101906103aa9190612e2d565b610f09565b005b3480156103bd57600080fd5b506103c6611072565b6040516103d39190613a3b565b60405180910390f35b3480156103e857600080fd5b5061040360048036038101906103fe9190612d22565b611104565b005b34801561041157600080fd5b5061042c60048036038101906104279190612ca7565b61111a565b005b34801561043a57600080fd5b5061045560048036038101906104509190612dec565b61117c565b6040516104629190613d1b565b60405180910390f35b34801561047757600080fd5b50610492600480360381019061048d9190612e2d565b611312565b60405161049f9190613a3b565b60405180910390f35b6104c260048036038101906104bd9190612e56565b611464565b005b3480156104d057600080fd5b506104eb60048036038101906104e69190612c1c565b61154a565b6040516104f89190613a20565b60405180910390f35b34801561050d57600080fd5b5061052860048036038101906105239190612e2d565b6115de565b6040516105359190613cf9565b60405180910390f35b34801561054a57600080fd5b5061056560048036038101906105609190612e2d565b6117e9565b6040516105789796959493929190613d36565b60405180910390f35b60007f80ac58cd000000000000000000000000000000000000000000000000000000007bffffffffffffffffffffffffffffffffffffffffffffffffffffffff1916827bffffffffffffffffffffffffffffffffffffffffffffffffffffffff1916148061064c57507f5b5e139f000000000000000000000000000000000000000000000000000000007bffffffffffffffffffffffffffffffffffffffffffffffffffffffff1916827bffffffffffffffffffffffffffffffffffffffffffffffffffffffff1916145b8061065c575061065b82611a5c565b5b9050919050565b60606000805461067290614098565b80601f016020809104026020016040519081016040528092919081815260200182805461069e90614098565b80156106eb5780601f106106c0576101008083540402835291602001916106eb565b820191906000526020600020905b8154815290600101906020018083116106ce57829003601f168201915b5050505050905090565b600061070082611ac6565b61073f576040517f08c379a000000000000000000000000000000000000000000000000000000000815260040161073690613c39565b60405180910390fd5b6004600083815260200190815260200160002060009054906101000a900473ffffffffffffffffffffffffffffffffffffffff169050919050565b60006107858261093b565b90508073ffffffffffffffffffffffffffffffffffffffff168373ffffffffffffffffffffffffffffffffffffffff1614156107f6576040517f08c379a00000000000000000000000000000000000000000000000000000000081526004016107ed90613c99565b60405180910390fd5b8073ffffffffffffffffffffffffffffffffffffffff16610815611b32565b73ffffffffffffffffffffffffffffffffffffffff16148061084457506108438161083e611b32565b61154a565b5b610883576040517f08c379a000000000000000000000000000000000000000000000000000000000815260040161087a90613b79565b60405180910390fd5b61088d8383611b3a565b505050565b60076020528060005260406000206000915090505481565b6108bb6108b5611b32565b82611bf3565b6108fa576040517f08c379a00000000000000000000000000000000000000000000000000000000081526004016108f190613cb9565b60405180910390fd5b610905838383611cd1565b505050565b6109258383836040518060200160405280600081525061111a565b505050565b60006109366009611f2d565b905090565b6000806002600084815260200190815260200160002060009054906101000a900473ffffffffffffffffffffffffffffffffffffffff169050600073ffffffffffffffffffffffffffffffffffffffff168173ffffffffffffffffffffffffffffffffffffffff1614156109e4576040517f08c379a00000000000000000000000000000000000000000000000000000000081526004016109db90613bb9565b60405180910390fd5b80915050919050565b3373ffffffffffffffffffffffffffffffffffffffff16610a0d8261093b565b73ffffffffffffffffffffffffffffffffffffffff1614610a2d57600080fd5b600060086000838152602001908152602001600020905061012c816005015414610a8c576040517f08c379a0000000000000000000000000000000000000000000000000000000008152600401610a8390613cd9565b60405180910390fd5b600181600501819055506001816004016000828254610aab9190613f1d565b925050819055506005816006016000828254610ac79190613f1d565b925050819055507fa0dbd2de9a9004860b2384993cb681274fdaa7bf3350d1e20cc551dfea4f42458282604051610aff929190613dba565b60405180910390a15050565b60008073ffffffffffffffffffffffffffffffffffffffff168273ffffffffffffffffffffffffffffffffffffffff161415610b7c576040517f08c379a0000000000000000000000000000000000000000000000000000000008152600401610b7390613b99565b60405180910390fd5b600360008373ffffffffffffffffffffffffffffffffffffffff1673ffffffffffffffffffffffffffffffffffffffff168152602001908152602001600020549050919050565b60606000610bd083610b0b565b67ffffffffffffffff811115610c0f577f4e487b7100000000000000000000000000000000000000000000000000000000600052604160045260246000fd5b604051908082528060200260200182016040528015610c4857816020015b610c356128e2565b815260200190600190039081610c2d5790505b5090506000805b610c596009611f2d565b811015610efe578473ffffffffffffffffffffffffffffffffffffffff16610c808261093b565b73ffffffffffffffffffffffffffffffffffffffff161415610eeb57600860008281526020019081526020016000206040518060e001604052908160008201548152602001600182018054610cd490614098565b80601f0160208091040260200160405190810160405280929190818152602001828054610d0090614098565b8015610d4d5780601f10610d2257610100808354040283529160200191610d4d565b820191906000526020600020905b815481529060010190602001808311610d3057829003601f168201915b50505050508152602001600282018054610d6690614098565b80601f0160208091040260200160405190810160405280929190818152602001828054610d9290614098565b8015610ddf5780601f10610db457610100808354040283529160200191610ddf565b820191906000526020600020905b815481529060010190602001808311610dc257829003601f168201915b50505050508152602001600382018054610df890614098565b80601f0160208091040260200160405190810160405280929190818152602001828054610e2490614098565b8015610e715780601f10610e4657610100808354040283529160200191610e71565b820191906000526020600020905b815481529060010190602001808311610e5457829003601f168201915b505050505081526020016004820154815260200160058201548152602001600682015481525050838381518110610ed1577f4e487b7100000000000000000000000000000000000000000000000000000000600052603260045260246000fd5b60200260200101819052508180610ee7906140e4565b9250505b8080610ef6906140e4565b915050610c4f565b508192505050919050565b3373ffffffffffffffffffffffffffffffffffffffff16610f298261093b565b73ffffffffffffffffffffffffffffffffffffffff1614610f4957600080fd5b600060086000838152602001908152602001600020905061012c816005015410610fa8576040517f08c379a0000000000000000000000000000000000000000000000000000000008152600401610f9f90613bd9565b60405180910390fd5b600081600601548260050154610fbe9190613f1d565b9050610fe76040518060600160405280602a8152602001614295602a9139836005015483611f3b565b6001826005015482610ff99190613fa4565b1061101b5760018260060160008282546110139190613f1d565b925050819055505b61012c81111561102b5761012c90505b8082600501819055507f8393afbd5f91250f56ac4eaae1c534f3cf12672a77d5f804afe83f71e1f043278383604051611065929190613dba565b60405180910390a1505050565b60606001805461108190614098565b80601f01602080910402602001604051908101604052809291908181526020018280546110ad90614098565b80156110fa5780601f106110cf576101008083540402835291602001916110fa565b820191906000526020600020905b8154815290600101906020018083116110dd57829003601f168201915b5050505050905090565b61111661110f611b32565b8383611fda565b5050565b61112b611125611b32565b83611bf3565b61116a576040517f08c379a000000000000000000000000000000000000000000000000000000000815260040161116190613cb9565b60405180910390fd5b61117684848484612147565b50505050565b600080329050600061118e6009611f2d565b90506040518060e00160405280828152602001856020015181526020018560400151815260200185606001518152602001856080015181526020018560a0015181526020018560c001518152506008600083815260200190815260200160002060008201518160000155602082015181600101908051906020019061121492919061291f565b50604082015181600201908051906020019061123192919061291f565b50606082015181600301908051906020019061124e92919061291f565b506080820151816004015560a0820151816005015560c0820151816006015590505061127a82826121a3565b80600760008473ffffffffffffffffffffffffffffffffffffffff1673ffffffffffffffffffffffffffffffffffffffff168152602001908152602001600020819055506112c860096121c1565b6113086040518060400160405280601d81526020017f4e4654206d696e7465642062792025732c20746f6b656e49643a20257300000081525083836121d7565b8092505050919050565b606061131d82611ac6565b61135c576040517f08c379a000000000000000000000000000000000000000000000000000000000815260040161135390613c19565b60405180910390fd5b600060066000848152602001908152602001600020805461137c90614098565b80601f01602080910402602001604051908101604052809291908181526020018280546113a890614098565b80156113f55780601f106113ca576101008083540402835291602001916113f5565b820191906000526020600020905b8154815290600101906020018083116113d857829003601f168201915b505050505090506000611406612276565b905060008151141561141c57819250505061145f565b600082511115611451578082604051602001611439929190613973565b6040516020818303038152906040529250505061145f565b61145a8461228d565b925050505b919050565b3373ffffffffffffffffffffffffffffffffffffffff166114848461093b565b73ffffffffffffffffffffffffffffffffffffffff16146114a457600080fd5b6000825114156114b357600080fd5b6000815114156114c257600080fd5b6000600860008581526020019081526020016000209050828160010190805190602001906114f192919061291f565b508181600201908051906020019061150a92919061291f565b507fb802583687bdb479fcb98b352e350c20c83b4b6592a18d2abd9d1b1478c12b36848260405161153c929190613dba565b60405180910390a150505050565b6000600560008473ffffffffffffffffffffffffffffffffffffffff1673ffffffffffffffffffffffffffffffffffffffff16815260200190815260200160002060008373ffffffffffffffffffffffffffffffffffffffff1673ffffffffffffffffffffffffffffffffffffffff16815260200190815260200160002060009054906101000a900460ff16905092915050565b6115e66128e2565b600860008381526020019081526020016000206040518060e00160405290816000820154815260200160018201805461161e90614098565b80601f016020809104026020016040519081016040528092919081815260200182805461164a90614098565b80156116975780601f1061166c57610100808354040283529160200191611697565b820191906000526020600020905b81548152906001019060200180831161167a57829003601f168201915b505050505081526020016002820180546116b090614098565b80601f01602080910402602001604051908101604052809291908181526020018280546116dc90614098565b80156117295780601f106116fe57610100808354040283529160200191611729565b820191906000526020600020905b81548152906001019060200180831161170c57829003601f168201915b5050505050815260200160038201805461174290614098565b80601f016020809104026020016040519081016040528092919081815260200182805461176e90614098565b80156117bb5780601f10611790576101008083540402835291602001916117bb565b820191906000526020600020905b81548152906001019060200180831161179e57829003601f168201915b5050505050815260200160048201548152602001600582015481526020016006820154815250509050919050565b600860205280600052604060002060009150905080600001549080600101805461181290614098565b80601f016020809104026020016040519081016040528092919081815260200182805461183e90614098565b801561188b5780601f106118605761010080835404028352916020019161188b565b820191906000526020600020905b81548152906001019060200180831161186e57829003601f168201915b5050505050908060020180546118a090614098565b80601f01602080910402602001604051908101604052809291908181526020018280546118cc90614098565b80156119195780601f106118ee57610100808354040283529160200191611919565b820191906000526020600020905b8154815290600101906020018083116118fc57829003601f168201915b50505050509080600301805461192e90614098565b80601f016020809104026020016040519081016040528092919081815260200182805461195a90614098565b80156119a75780601f1061197c576101008083540402835291602001916119a7565b820191906000526020600020905b81548152906001019060200180831161198a57829003601f168201915b5050505050908060040154908060050154908060060154905087565b611a59816040516024016119d79190613a3b565b6040516020818303038152906040527f41304fac000000000000000000000000000000000000000000000000000000007bffffffffffffffffffffffffffffffffffffffffffffffffffffffff19166020820180517bffffffffffffffffffffffffffffffffffffffffffffffffffffffff8381831617835250505050612334565b50565b60007f01ffc9a7000000000000000000000000000000000000000000000000000000007bffffffffffffffffffffffffffffffffffffffffffffffffffffffff1916827bffffffffffffffffffffffffffffffffffffffffffffffffffffffff1916149050919050565b60008073ffffffffffffffffffffffffffffffffffffffff166002600084815260200190815260200160002060009054906101000a900473ffffffffffffffffffffffffffffffffffffffff1673ffffffffffffffffffffffffffffffffffffffff1614159050919050565b600033905090565b816004600083815260200190815260200160002060006101000a81548173ffffffffffffffffffffffffffffffffffffffff021916908373ffffffffffffffffffffffffffffffffffffffff160217905550808273ffffffffffffffffffffffffffffffffffffffff16611bad8361093b565b73ffffffffffffffffffffffffffffffffffffffff167f8c5be1e5ebec7d5bd14f71427d1e84f3dd0314c0f7b2291e5b200ac8c7c3b92560405160405180910390a45050565b6000611bfe82611ac6565b611c3d576040517f08c379a0000000000000000000000000000000000000000000000000000000008152600401611c3490613b59565b60405180910390fd5b6000611c488361093b565b90508073ffffffffffffffffffffffffffffffffffffffff168473ffffffffffffffffffffffffffffffffffffffff161480611cb757508373ffffffffffffffffffffffffffffffffffffffff16611c9f846106f5565b73ffffffffffffffffffffffffffffffffffffffff16145b80611cc85750611cc7818561154a565b5b91505092915050565b8273ffffffffffffffffffffffffffffffffffffffff16611cf18261093b565b73ffffffffffffffffffffffffffffffffffffffff1614611d47576040517f08c379a0000000000000000000000000000000000000000000000000000000008152600401611d3e90613c59565b60405180910390fd5b600073ffffffffffffffffffffffffffffffffffffffff168273ffffffffffffffffffffffffffffffffffffffff161415611db7576040517f08c379a0000000000000000000000000000000000000000000000000000000008152600401611dae90613b19565b60405180910390fd5b611dc283838361235d565b611dcd600082611b3a565b6001600360008573ffffffffffffffffffffffffffffffffffffffff1673ffffffffffffffffffffffffffffffffffffffff1681526020019081526020016000206000828254611e1d9190613fa4565b925050819055506001600360008473ffffffffffffffffffffffffffffffffffffffff1673ffffffffffffffffffffffffffffffffffffffff1681526020019081526020016000206000828254611e749190613f1d565b92505081905550816002600083815260200190815260200160002060006101000a81548173ffffffffffffffffffffffffffffffffffffffff021916908373ffffffffffffffffffffffffffffffffffffffff160217905550808273ffffffffffffffffffffffffffffffffffffffff168473ffffffffffffffffffffffffffffffffffffffff167fddf252ad1be2c89b69c2b068fc378daa952ba7f163c4a11628f55a4df523b3ef60405160405180910390a4505050565b600081600001549050919050565b611fd5838383604051602401611f5393929190613a9b565b6040516020818303038152906040527f969cdd03000000000000000000000000000000000000000000000000000000007bffffffffffffffffffffffffffffffffffffffffffffffffffffffff19166020820180517bffffffffffffffffffffffffffffffffffffffffffffffffffffffff8381831617835250505050612334565b505050565b8173ffffffffffffffffffffffffffffffffffffffff168373ffffffffffffffffffffffffffffffffffffffff161415612049576040517f08c379a000000000000000000000000000000000000000000000000000000000815260040161204090613b39565b60405180910390fd5b80600560008573ffffffffffffffffffffffffffffffffffffffff1673ffffffffffffffffffffffffffffffffffffffff16815260200190815260200160002060008473ffffffffffffffffffffffffffffffffffffffff1673ffffffffffffffffffffffffffffffffffffffff16815260200190815260200160002060006101000a81548160ff0219169083151502179055508173ffffffffffffffffffffffffffffffffffffffff168373ffffffffffffffffffffffffffffffffffffffff167f17307eab39ab6107e8899845ad3d59bd9653f200f220920489ca2b5937696c318360405161213a9190613a20565b60405180910390a3505050565b612152848484611cd1565b61215e84848484612362565b61219d576040517f08c379a000000000000000000000000000000000000000000000000000000000815260040161219490613ad9565b60405180910390fd5b50505050565b6121bd8282604051806020016040528060008152506124f9565b5050565b6001816000016000828254019250508190555050565b6122718383836040516024016121ef93929190613a5d565b6040516020818303038152906040527f07c81217000000000000000000000000000000000000000000000000000000007bffffffffffffffffffffffffffffffffffffffffffffffffffffffff19166020820180517bffffffffffffffffffffffffffffffffffffffffffffffffffffffff8381831617835250505050612334565b505050565b606060405180602001604052806000815250905090565b606061229882611ac6565b6122d7576040517f08c379a00000000000000000000000000000000000000000000000000000000081526004016122ce90613c79565b60405180910390fd5b60006122e1612276565b90506000815111612301576040518060200160405280600081525061232c565b8061230b84612554565b60405160200161231c929190613973565b6040516020818303038152906040525b915050919050565b60008151905060006a636f6e736f6c652e6c6f679050602083016000808483855afa5050505050565b505050565b60006123838473ffffffffffffffffffffffffffffffffffffffff16612701565b156124ec578373ffffffffffffffffffffffffffffffffffffffff1663150b7a026123ac611b32565b8786866040518563ffffffff1660e01b81526004016123ce94939291906139b2565b602060405180830381600087803b1580156123e857600080fd5b505af192505050801561241957506040513d601f19601f820116820180604052508101906124169190612dc3565b60015b61249c573d8060008114612449576040519150601f19603f3d011682016040523d82523d6000602084013e61244e565b606091505b50600081511415612494576040517f08c379a000000000000000000000000000000000000000000000000000000000815260040161248b90613ad9565b60405180910390fd5b805181602001fd5b63150b7a0260e01b7bffffffffffffffffffffffffffffffffffffffffffffffffffffffff1916817bffffffffffffffffffffffffffffffffffffffffffffffffffffffff1916149150506124f1565b600190505b949350505050565b6125038383612714565b6125106000848484612362565b61254f576040517f08c379a000000000000000000000000000000000000000000000000000000000815260040161254690613ad9565b60405180910390fd5b505050565b6060600082141561259c576040518060400160405280600181526020017f300000000000000000000000000000000000000000000000000000000000000081525090506126fc565b600082905060005b600082146125ce5780806125b7906140e4565b915050600a826125c79190613f73565b91506125a4565b60008167ffffffffffffffff811115612610577f4e487b7100000000000000000000000000000000000000000000000000000000600052604160045260246000fd5b6040519080825280601f01601f1916602001820160405280156126425781602001600182028036833780820191505090505b5090505b600085146126f55760018261265b9190613fa4565b9150600a8561266a919061412d565b60306126769190613f1d565b60f81b8183815181106126b2577f4e487b7100000000000000000000000000000000000000000000000000000000600052603260045260246000fd5b60200101907effffffffffffffffffffffffffffffffffffffffffffffffffffffffffffff1916908160001a905350600a856126ee9190613f73565b9450612646565b8093505050505b919050565b600080823b905060008111915050919050565b600073ffffffffffffffffffffffffffffffffffffffff168273ffffffffffffffffffffffffffffffffffffffff161415612784576040517f08c379a000000000000000000000000000000000000000000000000000000000815260040161277b90613bf9565b60405180910390fd5b61278d81611ac6565b156127cd576040517f08c379a00000000000000000000000000000000000000000000000000000000081526004016127c490613af9565b60405180910390fd5b6127d96000838361235d565b6001600360008473ffffffffffffffffffffffffffffffffffffffff1673ffffffffffffffffffffffffffffffffffffffff16815260200190815260200160002060008282546128299190613f1d565b92505081905550816002600083815260200190815260200160002060006101000a81548173ffffffffffffffffffffffffffffffffffffffff021916908373ffffffffffffffffffffffffffffffffffffffff160217905550808273ffffffffffffffffffffffffffffffffffffffff16600073ffffffffffffffffffffffffffffffffffffffff167fddf252ad1be2c89b69c2b068fc378daa952ba7f163c4a11628f55a4df523b3ef60405160405180910390a45050565b6040518060e00160405280600081526020016060815260200160608152602001606081526020016000815260200160008152602001600081525090565b82805461292b90614098565b90600052602060002090601f01602090048101928261294d5760008555612994565b82601f1061296657805160ff1916838001178555612994565b82800160010185558215612994579182015b82811115612993578251825591602001919060010190612978565b5b5090506129a191906129a5565b5090565b5b808211156129be5760008160009055506001016129a6565b5090565b60006129d56129d084613e1b565b613dea565b9050828152602081018484840111156129ed57600080fd5b6129f8848285614056565b509392505050565b6000612a13612a0e84613e4b565b613dea565b905082815260208101848484011115612a2b57600080fd5b612a36848285614056565b509392505050565b600081359050612a4d81614238565b92915050565b600081359050612a628161424f565b92915050565b600081359050612a7781614266565b92915050565b600081519050612a8c81614266565b92915050565b600082601f830112612aa357600080fd5b8135612ab38482602086016129c2565b91505092915050565b600082601f830112612acd57600080fd5b8135612add848260208601612a00565b91505092915050565b600060e08284031215612af857600080fd5b612b0260e0613dea565b90506000612b1284828501612bde565b600083015250602082013567ffffffffffffffff811115612b3257600080fd5b612b3e84828501612abc565b602083015250604082013567ffffffffffffffff811115612b5e57600080fd5b612b6a84828501612abc565b604083015250606082013567ffffffffffffffff811115612b8a57600080fd5b612b9684828501612abc565b6060830152506080612baa84828501612bde565b60808301525060a0612bbe84828501612bde565b60a08301525060c0612bd284828501612bde565b60c08301525092915050565b600081359050612bed8161427d565b92915050565b600060208284031215612c0557600080fd5b6000612c1384828501612a3e565b91505092915050565b60008060408385031215612c2f57600080fd5b6000612c3d85828601612a3e565b9250506020612c4e85828601612a3e565b9150509250929050565b600080600060608486031215612c6d57600080fd5b6000612c7b86828701612a3e565b9350506020612c8c86828701612a3e565b9250506040612c9d86828701612bde565b9150509250925092565b60008060008060808587031215612cbd57600080fd5b6000612ccb87828801612a3e565b9450506020612cdc87828801612a3e565b9350506040612ced87828801612bde565b925050606085013567ffffffffffffffff811115612d0a57600080fd5b612d1687828801612a92565b91505092959194509250565b60008060408385031215612d3557600080fd5b6000612d4385828601612a3e565b9250506020612d5485828601612a53565b9150509250929050565b60008060408385031215612d7157600080fd5b6000612d7f85828601612a3e565b9250506020612d9085828601612bde565b9150509250929050565b600060208284031215612dac57600080fd5b6000612dba84828501612a68565b91505092915050565b600060208284031215612dd557600080fd5b6000612de384828501612a7d565b91505092915050565b600060208284031215612dfe57600080fd5b600082013567ffffffffffffffff811115612e1857600080fd5b612e2484828501612ae6565b91505092915050565b600060208284031215612e3f57600080fd5b6000612e4d84828501612bde565b91505092915050565b600080600060608486031215612e6b57600080fd5b6000612e7986828701612bde565b935050602084013567ffffffffffffffff811115612e9657600080fd5b612ea286828701612abc565b925050604084013567ffffffffffffffff811115612ebf57600080fd5b612ecb86828701612abc565b9150509250925092565b6000612ee1838361372c565b905092915050565b612ef281613fe2565b82525050565b6000612f0382613ea0565b612f0d8185613ece565b935083602082028501612f1f85613e7b565b8060005b85811015612f5b5784840389528151612f3c8582612ed5565b9450612f4783613ec1565b925060208a01995050600181019050612f23565b50829750879550505050505092915050565b612f7681613ff4565b82525050565b6000612f8782613eab565b612f918185613edf565b9350612fa1818560208601614065565b612faa8161421a565b840191505092915050565b6000612fc082613eb6565b612fca8185613ef0565b9350612fda818560208601614065565b612fe38161421a565b840191505092915050565b6000612ff982613eb6565b6130038185613f01565b9350613013818560208601614065565b61301c8161421a565b840191505092915050565b600061303282613eb6565b61303c8185613f12565b935061304c818560208601614065565b80840191505092915050565b6000815461306581614098565b61306f8186613ef0565b9450600182166000811461308a576001811461309c576130cf565b60ff19831686526020860193506130cf565b6130a585613e8b565b60005b838110156130c7578154818901526001820191506020810190506130a8565b808801955050505b50505092915050565b60006130e5603283613f01565b91507f4552433732313a207472616e7366657220746f206e6f6e20455243373231526560008301527f63656976657220696d706c656d656e74657200000000000000000000000000006020830152604082019050919050565b600061314b601c83613f01565b91507f4552433732313a20746f6b656e20616c7265616479206d696e746564000000006000830152602082019050919050565b600061318b602483613f01565b91507f4552433732313a207472616e7366657220746f20746865207a65726f2061646460008301527f72657373000000000000000000000000000000000000000000000000000000006020830152604082019050919050565b60006131f1601983613f01565b91507f4552433732313a20617070726f766520746f2063616c6c6572000000000000006000830152602082019050919050565b6000613231602c83613f01565b91507f4552433732313a206f70657261746f7220717565727920666f72206e6f6e657860008301527f697374656e7420746f6b656e00000000000000000000000000000000000000006020830152604082019050919050565b6000613297603883613f01565b91507f4552433732313a20617070726f76652063616c6c6572206973206e6f74206f7760008301527f6e6572206e6f7220617070726f76656420666f7220616c6c00000000000000006020830152604082019050919050565b60006132fd602a83613f01565b91507f4552433732313a2062616c616e636520717565727920666f7220746865207a6560008301527f726f2061646472657373000000000000000000000000000000000000000000006020830152604082019050919050565b6000613363602983613f01565b91507f4552433732313a206f776e657220717565727920666f72206e6f6e657869737460008301527f656e7420746f6b656e00000000000000000000000000000000000000000000006020830152604082019050919050565b60006133c9603883613f01565b91507f596f75206d75737420746f207570677261646520746f206c6567656e6461727960008301527f206c6576656c2c206265666f726520616e20616374696f6e00000000000000006020830152604082019050919050565b600061342f602083613f01565b91507f4552433732313a206d696e7420746f20746865207a65726f20616464726573736000830152602082019050919050565b600061346f603183613f01565b91507f45524337323155524953746f726167653a2055524920717565727920666f722060008301527f6e6f6e6578697374656e7420746f6b656e0000000000000000000000000000006020830152604082019050919050565b60006134d5602c83613f01565b91507f4552433732313a20617070726f76656420717565727920666f72206e6f6e657860008301527f697374656e7420746f6b656e00000000000000000000000000000000000000006020830152604082019050919050565b600061353b602983613f01565b91507f4552433732313a207472616e73666572206f6620746f6b656e2074686174206960008301527f73206e6f74206f776e00000000000000000000000000000000000000000000006020830152604082019050919050565b60006135a1602f83613f01565b91507f4552433732314d657461646174613a2055524920717565727920666f72206e6f60008301527f6e6578697374656e7420746f6b656e00000000000000000000000000000000006020830152604082019050919050565b6000613607602183613f01565b91507f4552433732313a20617070726f76616c20746f2063757272656e74206f776e6560008301527f72000000000000000000000000000000000000000000000000000000000000006020830152604082019050919050565b600061366d603183613f01565b91507f4552433732313a207472616e736665722063616c6c6572206973206e6f74206f60008301527f776e6572206e6f7220617070726f7665640000000000000000000000000000006020830152604082019050919050565b60006136d3603083613f01565b91507f596f75206d757374206861766520333030206c6576656c20666f72207570677260008301527f61646520746f206c6567656e64617279000000000000000000000000000000006020830152604082019050919050565b600060e0830160008301516137446000860182613955565b506020830151848203602086015261375c8282612fb5565b915050604083015184820360408601526137768282612fb5565b915050606083015184820360608601526137908282612fb5565b91505060808301516137a56080860182613955565b5060a08301516137b860a0860182613955565b5060c08301516137cb60c0860182613955565b508091505092915050565b600060e0830160008301516137ee6000860182613955565b50602083015184820360208601526138068282612fb5565b915050604083015184820360408601526138208282612fb5565b9150506060830151848203606086015261383a8282612fb5565b915050608083015161384f6080860182613955565b5060a083015161386260a0860182613955565b5060c083015161387560c0860182613955565b508091505092915050565b600060e083016000808401549050613897816140ca565b6138a46000870182613955565b506001840185830360208701526138bb8382613058565b9250506002840185830360408701526138d48382613058565b9250506003840185830360608701526138ed8382613058565b92505060048401549050613900816140ca565b61390d6080870182613955565b506005840154905061391e816140ca565b61392b60a0870182613955565b506006840154905061393c816140ca565b61394960c0870182613955565b50819250505092915050565b61395e8161404c565b82525050565b61396d8161404c565b82525050565b600061397f8285613027565b915061398b8284613027565b91508190509392505050565b60006020820190506139ac6000830184612ee9565b92915050565b60006080820190506139c76000830187612ee9565b6139d46020830186612ee9565b6139e16040830185613964565b81810360608301526139f38184612f7c565b905095945050505050565b60006020820190508181036000830152613a188184612ef8565b905092915050565b6000602082019050613a356000830184612f6d565b92915050565b60006020820190508181036000830152613a558184612fee565b905092915050565b60006060820190508181036000830152613a778186612fee565b9050613a866020830185612ee9565b613a936040830184613964565b949350505050565b60006060820190508181036000830152613ab58186612fee565b9050613ac46020830185613964565b613ad16040830184613964565b949350505050565b60006020820190508181036000830152613af2816130d8565b9050919050565b60006020820190508181036000830152613b128161313e565b9050919050565b60006020820190508181036000830152613b328161317e565b9050919050565b60006020820190508181036000830152613b52816131e4565b9050919050565b60006020820190508181036000830152613b7281613224565b9050919050565b60006020820190508181036000830152613b928161328a565b9050919050565b60006020820190508181036000830152613bb2816132f0565b9050919050565b60006020820190508181036000830152613bd281613356565b9050919050565b60006020820190508181036000830152613bf2816133bc565b9050919050565b60006020820190508181036000830152613c1281613422565b9050919050565b60006020820190508181036000830152613c3281613462565b9050919050565b60006020820190508181036000830152613c52816134c8565b9050919050565b60006020820190508181036000830152613c728161352e565b9050919050565b60006020820190508181036000830152613c9281613594565b9050919050565b60006020820190508181036000830152613cb2816135fa565b9050919050565b60006020820190508181036000830152613cd281613660565b9050919050565b60006020820190508181036000830152613cf2816136c6565b9050919050565b60006020820190508181036000830152613d1381846137d6565b905092915050565b6000602082019050613d306000830184613964565b92915050565b600060e082019050613d4b600083018a613964565b8181036020830152613d5d8189612fee565b90508181036040830152613d718188612fee565b90508181036060830152613d858187612fee565b9050613d946080830186613964565b613da160a0830185613964565b613dae60c0830184613964565b98975050505050505050565b6000604082019050613dcf6000830185613964565b8181036020830152613de18184613880565b90509392505050565b6000604051905081810181811067ffffffffffffffff82111715613e1157613e106141eb565b5b8060405250919050565b600067ffffffffffffffff821115613e3657613e356141eb565b5b601f19601f8301169050602081019050919050565b600067ffffffffffffffff821115613e6657613e656141eb565b5b601f19601f8301169050602081019050919050565b6000819050602082019050919050565b60008190508160005260206000209050919050565b600081519050919050565b600081519050919050565b600081519050919050565b6000602082019050919050565b600082825260208201905092915050565b600082825260208201905092915050565b600082825260208201905092915050565b600082825260208201905092915050565b600081905092915050565b6000613f288261404c565b9150613f338361404c565b9250827fffffffffffffffffffffffffffffffffffffffffffffffffffffffffffffffff03821115613f6857613f6761415e565b5b828201905092915050565b6000613f7e8261404c565b9150613f898361404c565b925082613f9957613f9861418d565b5b828204905092915050565b6000613faf8261404c565b9150613fba8361404c565b925082821015613fcd57613fcc61415e565b5b828203905092915050565b6000819050919050565b6000613fed8261402c565b9050919050565b60008115159050919050565b60007fffffffff0000000000000000000000000000000000000000000000000000000082169050919050565b600073ffffffffffffffffffffffffffffffffffffffff82169050919050565b6000819050919050565b82818337600083830152505050565b60005b83811015614083578082015181840152602081019050614068565b83811115614092576000848401525b50505050565b600060028204905060018216806140b057607f821691505b602082108114156140c4576140c36141bc565b5b50919050565b60006140dd6140d88361422b565b613fd8565b9050919050565b60006140ef8261404c565b91507fffffffffffffffffffffffffffffffffffffffffffffffffffffffffffffffff8214156141225761412161415e565b5b600182019050919050565b60006141388261404c565b91506141438361404c565b9250826141535761415261418d565b5b828206905092915050565b7f4e487b7100000000000000000000000000000000000000000000000000000000600052601160045260246000fd5b7f4e487b7100000000000000000000000000000000000000000000000000000000600052601260045260246000fd5b7f4e487b7100000000000000000000000000000000000000000000000000000000600052602260045260246000fd5b7f4e487b7100000000000000000000000000000000000000000000000000000000600052604160045260246000fd5b6000601f19601f8301169050919050565b60008160001c9050919050565b61424181613fe2565b811461424c57600080fd5b50565b61425881613ff4565b811461426357600080fd5b50565b61426f81614000565b811461427a57600080fd5b50565b6142868161404c565b811461429157600080fd5b5056fe506c617965722070726576206c6576656c3a2025732c20706c617965724e6578744c6576656c3a202573a26469706673582212204cd699d301032e6b177db9fdb259f6704c070724c24023d2294e3c8e79751d4a64736f6c63430008000033",
  "linkReferences": {},
  "deployedLinkReferences": {}
}