{
  "_format": "hh-sol-artifact-1",
  "contractName": "CryptoFacesGame",
  "sourceName": "contracts/Game.sol",
  "abi": [
    {
      "inputs": [
        {
          "internalType": "contract CryptoFacesNFT",
          "name": "_nft",
          "type": "address"
        },
        {
          "internalType": "string[]",
          "name": "characterNames",
          "type": "string[]"
        },
        {
          "internalType": "string[]",
          "name": "characterDescriptions",
          "type": "string[]"
        },
        {
          "internalType": "string[]",
          "name": "characterImages",
          "type": "string[]"
        }
      ],
      "stateMutability": "payable",
      "type": "constructor"
    },
    {
      "anonymous": false,
      "inputs": [
        {
          "indexed": true,
          "internalType": "address",
          "name": "owner",
          "type": "address"
        },
        {
          "indexed": true,
          "internalType": "address",
          "name": "approved",
          "type": "address"
        },
        {
          "indexed": true,
          "internalType": "uint256",
          "name": "tokenId",
          "type": "uint256"
        }
      ],
      "name": "Approval",
      "type": "event"
    },
    {
      "anonymous": false,
      "inputs": [
        {
          "indexed": true,
          "internalType": "address",
          "name": "owner",
          "type": "address"
        },
        {
          "indexed": true,
          "internalType": "address",
          "name": "operator",
          "type": "address"
        },
        {
          "indexed": false,
          "internalType": "bool",
          "name": "approved",
          "type": "bool"
        }
      ],
      "name": "ApprovalForAll",
      "type": "event"
    },
    {
      "anonymous": false,
      "inputs": [
        {
          "indexed": false,
          "internalType": "address",
          "name": "sender",
          "type": "address"
        },
        {
          "indexed": false,
          "internalType": "uint256",
          "name": "tokenId",
          "type": "uint256"
        },
        {
          "indexed": false,
          "internalType": "uint256",
          "name": "cryptoFaceIndex",
          "type": "uint256"
        },
        {
          "components": [
            {
              "internalType": "uint256",
              "name": "cryptoFaceIndex",
              "type": "uint256"
            },
            {
              "internalType": "string",
              "name": "name",
              "type": "string"
            },
            {
              "internalType": "string",
              "name": "description",
              "type": "string"
            },
            {
              "internalType": "string",
              "name": "imageURI",
              "type": "string"
            },
            {
              "internalType": "uint256",
              "name": "legendaryHypeLevel",
              "type": "uint256"
            },
            {
              "internalType": "uint256",
              "name": "hypeLevel",
              "type": "uint256"
            },
            {
              "internalType": "uint256",
              "name": "hypeValue",
              "type": "uint256"
            }
          ],
          "indexed": false,
          "internalType": "struct GameModel.Character",
          "name": "character",
          "type": "tuple"
        }
      ],
      "name": "CharacterNFTMinted",
      "type": "event"
    },
    {
      "anonymous": false,
      "inputs": [
        {
          "indexed": true,
          "internalType": "address",
          "name": "from",
          "type": "address"
        },
        {
          "indexed": true,
          "internalType": "address",
          "name": "to",
          "type": "address"
        },
        {
          "indexed": true,
          "internalType": "uint256",
          "name": "tokenId",
          "type": "uint256"
        }
      ],
      "name": "Transfer",
      "type": "event"
    },
    {
      "inputs": [
        {
          "internalType": "address",
          "name": "to",
          "type": "address"
        },
        {
          "internalType": "uint256",
          "name": "tokenId",
          "type": "uint256"
        }
      ],
      "name": "approve",
      "outputs": [],
      "stateMutability": "nonpayable",
      "type": "function"
    },
    {
      "inputs": [
        {
          "internalType": "address",
          "name": "owner",
          "type": "address"
        }
      ],
      "name": "balanceOf",
      "outputs": [
        {
          "internalType": "uint256",
          "name": "",
          "type": "uint256"
        }
      ],
      "stateMutability": "view",
      "type": "function"
    },
    {
      "inputs": [
        {
          "internalType": "uint256",
          "name": "tokenId",
          "type": "uint256"
        }
      ],
      "name": "getApproved",
      "outputs": [
        {
          "internalType": "address",
          "name": "",
          "type": "address"
        }
      ],
      "stateMutability": "view",
      "type": "function"
    },
    {
      "inputs": [],
      "name": "getDefaultCharacters",
      "outputs": [
        {
          "components": [
            {
              "internalType": "uint256",
              "name": "cryptoFaceIndex",
              "type": "uint256"
            },
            {
              "internalType": "string",
              "name": "name",
              "type": "string"
            },
            {
              "internalType": "string",
              "name": "description",
              "type": "string"
            },
            {
              "internalType": "string",
              "name": "imageURI",
              "type": "string"
            },
            {
              "internalType": "uint256",
              "name": "legendaryHypeLevel",
              "type": "uint256"
            },
            {
              "internalType": "uint256",
              "name": "hypeLevel",
              "type": "uint256"
            },
            {
              "internalType": "uint256",
              "name": "hypeValue",
              "type": "uint256"
            }
          ],
          "internalType": "struct GameModel.Character[]",
          "name": "",
          "type": "tuple[]"
        }
      ],
      "stateMutability": "view",
      "type": "function"
    },
    {
      "inputs": [],
      "name": "getOwnedCharacters",
      "outputs": [
        {
          "components": [
            {
              "internalType": "uint256",
              "name": "cryptoFaceIndex",
              "type": "uint256"
            },
            {
              "internalType": "string",
              "name": "name",
              "type": "string"
            },
            {
              "internalType": "string",
              "name": "description",
              "type": "string"
            },
            {
              "internalType": "string",
              "name": "imageURI",
              "type": "string"
            },
            {
              "internalType": "uint256",
              "name": "legendaryHypeLevel",
              "type": "uint256"
            },
            {
              "internalType": "uint256",
              "name": "hypeLevel",
              "type": "uint256"
            },
            {
              "internalType": "uint256",
              "name": "hypeValue",
              "type": "uint256"
            }
          ],
          "internalType": "struct GameModel.Character[]",
          "name": "",
          "type": "tuple[]"
        }
      ],
      "stateMutability": "view",
      "type": "function"
    },
    {
      "inputs": [],
      "name": "getTotalNFTMinted",
      "outputs": [
        {
          "internalType": "uint256",
          "name": "",
          "type": "uint256"
        }
      ],
      "stateMutability": "view",
      "type": "function"
    },
    {
      "inputs": [
        {
          "internalType": "address",
          "name": "owner",
          "type": "address"
        },
        {
          "internalType": "address",
          "name": "operator",
          "type": "address"
        }
      ],
      "name": "isApprovedForAll",
      "outputs": [
        {
          "internalType": "bool",
          "name": "",
          "type": "bool"
        }
      ],
      "stateMutability": "view",
      "type": "function"
    },
    {
      "inputs": [
        {
          "internalType": "uint256",
          "name": "characterIndex",
          "type": "uint256"
        }
      ],
      "name": "mintCharacterNFT",
      "outputs": [],
      "stateMutability": "nonpayable",
      "type": "function"
    },
    {
      "inputs": [],
      "name": "name",
      "outputs": [
        {
          "internalType": "string",
          "name": "",
          "type": "string"
        }
      ],
      "stateMutability": "view",
      "type": "function"
    },
    {
      "inputs": [
        {
          "internalType": "uint256",
          "name": "tokenId",
          "type": "uint256"
        }
      ],
      "name": "ownerOf",
      "outputs": [
        {
          "internalType": "address",
          "name": "",
          "type": "address"
        }
      ],
      "stateMutability": "view",
      "type": "function"
    },
    {
      "inputs": [
        {
          "internalType": "address",
          "name": "from",
          "type": "address"
        },
        {
          "internalType": "address",
          "name": "to",
          "type": "address"
        },
        {
          "internalType": "uint256",
          "name": "tokenId",
          "type": "uint256"
        }
      ],
      "name": "safeTransferFrom",
      "outputs": [],
      "stateMutability": "nonpayable",
      "type": "function"
    },
    {
      "inputs": [
        {
          "internalType": "address",
          "name": "from",
          "type": "address"
        },
        {
          "internalType": "address",
          "name": "to",
          "type": "address"
        },
        {
          "internalType": "uint256",
          "name": "tokenId",
          "type": "uint256"
        },
        {
          "internalType": "bytes",
          "name": "_data",
          "type": "bytes"
        }
      ],
      "name": "safeTransferFrom",
      "outputs": [],
      "stateMutability": "nonpayable",
      "type": "function"
    },
    {
      "inputs": [
        {
          "internalType": "address",
          "name": "operator",
          "type": "address"
        },
        {
          "internalType": "bool",
          "name": "approved",
          "type": "bool"
        }
      ],
      "name": "setApprovalForAll",
      "outputs": [],
      "stateMutability": "nonpayable",
      "type": "function"
    },
    {
      "inputs": [
        {
          "internalType": "bytes4",
          "name": "interfaceId",
          "type": "bytes4"
        }
      ],
      "name": "supportsInterface",
      "outputs": [
        {
          "internalType": "bool",
          "name": "",
          "type": "bool"
        }
      ],
      "stateMutability": "view",
      "type": "function"
    },
    {
      "inputs": [],
      "name": "symbol",
      "outputs": [
        {
          "internalType": "string",
          "name": "",
          "type": "string"
        }
      ],
      "stateMutability": "view",
      "type": "function"
    },
    {
      "inputs": [
        {
          "internalType": "uint256",
          "name": "tokenId",
          "type": "uint256"
        }
      ],
      "name": "tokenURI",
      "outputs": [
        {
          "internalType": "string",
          "name": "",
          "type": "string"
        }
      ],
      "stateMutability": "view",
      "type": "function"
    },
    {
      "inputs": [
        {
          "internalType": "address",
          "name": "from",
          "type": "address"
        },
        {
          "internalType": "address",
          "name": "to",
          "type": "address"
        },
        {
          "internalType": "uint256",
          "name": "tokenId",
          "type": "uint256"
        }
      ],
      "name": "transferFrom",
      "outputs": [],
      "stateMutability": "nonpayable",
      "type": "function"
    }
  ],
  "bytecode": "0x608060405260405162003d9638038062003d96833981810160405281019062000029919062000714565b6040518060400160405280600b81526020017f43727970746f46616365730000000000000000000000000000000000000000008152506040518060400160405280600381526020017f43465300000000000000000000000000000000000000000000000000000000008152508160009080519060200190620000ad92919062000549565b508060019080519060200190620000c692919062000549565b505050620001146040518060400160405280601f81526020017f43727970746f466163657347616d6520696e697469616c697a696e672e2e2e00815250620003d460201b620011cb1760201c565b83600760006101000a81548173ffffffffffffffffffffffffffffffffffffffff021916908373ffffffffffffffffffffffffffffffffffffffff16021790555060005b83518110156200037e5760006040518060e00160405280838152602001868481518110620001af577f4e487b7100000000000000000000000000000000000000000000000000000000600052603260045260246000fd5b60200260200101518152602001858481518110620001f6577f4e487b7100000000000000000000000000000000000000000000000000000000600052603260045260246000fd5b602002602001015181526020018484815181106200023d577f4e487b7100000000000000000000000000000000000000000000000000000000600052603260045260246000fd5b602002602001015181526020016000815260200160018152602001600a81525090506006819080600181540180825580915050600190039060005260206000209060070201600090919091909150600082015181600001556020820151816001019080519060200190620002b392919062000549565b506040820151816002019080519060200190620002d292919062000549565b506060820151816003019080519060200190620002f192919062000549565b506080820151816004015560a0820151816005015560c082015181600601555050620003676040518060400160405280601f81526020017f446f6e6520696e697469616c697a696e6720257320772f2c20696d6720257300815250826020015183606001516200047760201b620012641760201c565b5080806200037590620009f2565b91505062000158565b50620003ca6040518060400160405280601381526020017f47616d6520696e697469616c697a6564203a2900000000000000000000000000815250620003d460201b620011cb1760201c565b5050505062000af8565b6200047481604051602401620003eb91906200080c565b6040516020818303038152906040527f41304fac000000000000000000000000000000000000000000000000000000007bffffffffffffffffffffffffffffffffffffffffffffffffffffffff19166020820180517bffffffffffffffffffffffffffffffffffffffffffffffffffffffff83818316178352505050506200052060201b60201c565b50565b6200051b838383604051602401620004929392919062000830565b6040516020818303038152906040527f2ced7cef000000000000000000000000000000000000000000000000000000007bffffffffffffffffffffffffffffffffffffffffffffffffffffffff19166020820180517bffffffffffffffffffffffffffffffffffffffffffffffffffffffff83818316178352505050506200052060201b60201c565b505050565b60008151905060006a636f6e736f6c652e6c6f679050602083016000808483855afa5050505050565b8280546200055790620009bc565b90600052602060002090601f0160209004810192826200057b5760008555620005c7565b82601f106200059657805160ff1916838001178555620005c7565b82800160010185558215620005c7579182015b82811115620005c6578251825591602001919060010190620005a9565b5b509050620005d69190620005da565b5090565b5b80821115620005f5576000816000905550600101620005db565b5090565b6000620006106200060a84620008b6565b62000882565b9050808382526020820190508260005b85811015620006545781518501620006398882620006e7565b84526020840193506020830192505060018101905062000620565b5050509392505050565b6000620006756200066f84620008e5565b62000882565b9050828152602081018484840111156200068e57600080fd5b6200069b84828562000986565b509392505050565b600082601f830112620006b557600080fd5b8151620006c7848260208601620005f9565b91505092915050565b600081519050620006e18162000ade565b92915050565b600082601f830112620006f957600080fd5b81516200070b8482602086016200065e565b91505092915050565b600080600080608085870312156200072b57600080fd5b60006200073b87828801620006d0565b945050602085015167ffffffffffffffff8111156200075957600080fd5b6200076787828801620006a3565b935050604085015167ffffffffffffffff8111156200078557600080fd5b6200079387828801620006a3565b925050606085015167ffffffffffffffff811115620007b157600080fd5b620007bf87828801620006a3565b91505092959194509250565b6000620007d88262000918565b620007e4818562000923565b9350620007f681856020860162000986565b620008018162000acd565b840191505092915050565b60006020820190508181036000830152620008288184620007cb565b905092915050565b600060608201905081810360008301526200084c8186620007cb565b90508181036020830152620008628185620007cb565b90508181036040830152620008788184620007cb565b9050949350505050565b6000604051905081810181811067ffffffffffffffff82111715620008ac57620008ab62000a9e565b5b8060405250919050565b600067ffffffffffffffff821115620008d457620008d362000a9e565b5b602082029050602081019050919050565b600067ffffffffffffffff82111562000903576200090262000a9e565b5b601f19601f8301169050602081019050919050565b600081519050919050565b600082825260208201905092915050565b600062000941826200095c565b9050919050565b6000620009558262000934565b9050919050565b600073ffffffffffffffffffffffffffffffffffffffff82169050919050565b6000819050919050565b60005b83811015620009a657808201518184015260208101905062000989565b83811115620009b6576000848401525b50505050565b60006002820490506001821680620009d557607f821691505b60208210811415620009ec57620009eb62000a6f565b5b50919050565b6000620009ff826200097c565b91507fffffffffffffffffffffffffffffffffffffffffffffffffffffffffffffffff82141562000a355762000a3462000a40565b5b600182019050919050565b7f4e487b7100000000000000000000000000000000000000000000000000000000600052601160045260246000fd5b7f4e487b7100000000000000000000000000000000000000000000000000000000600052602260045260246000fd5b7f4e487b7100000000000000000000000000000000000000000000000000000000600052604160045260246000fd5b6000601f19601f8301169050919050565b62000ae98162000948565b811462000af557600080fd5b50565b61328e8062000b086000396000f3fe608060405234801561001057600080fd5b506004361061010b5760003560e01c806374bce80a116100a2578063b88d4fde11610071578063b88d4fde146102b8578063c87b56dd146102d4578063dfac6f5d14610304578063e985e9c514610322578063f8b81ef7146103525761010b565b806374bce80a1461024257806395d89b4114610260578063986f5be21461027e578063a22cb4651461029c5761010b565b806323b872dd116100de57806323b872dd146101aa57806342842e0e146101c65780636352211e146101e257806370a08231146102125761010b565b806301ffc9a71461011057806306fdde0314610140578063081812fc1461015e578063095ea7b31461018e575b600080fd5b61012a600480360381019061012591906121ee565b61036e565b6040516101379190612b62565b60405180910390f35b610148610450565b6040516101559190612b7d565b60405180910390f35b61017860048036038101906101739190612240565b6104e2565b6040516101859190612a8d565b60405180910390f35b6101a860048036038101906101a39190612171565b610567565b005b6101c460048036038101906101bf919061206b565b61067f565b005b6101e060048036038101906101db919061206b565b6106df565b005b6101fc60048036038101906101f79190612240565b6106ff565b6040516102099190612a8d565b60405180910390f35b61022c60048036038101906102279190612006565b6107b1565b6040516102399190612dad565b60405180910390f35b61024a610869565b6040516102579190612b40565b60405180910390f35b610268610aa6565b6040516102759190612b7d565b60405180910390f35b610286610b38565b6040516102939190612dad565b60405180910390f35b6102b660048036038101906102b19190612135565b610bdf565b005b6102d260048036038101906102cd91906120ba565b610bf5565b005b6102ee60048036038101906102e99190612240565b610c57565b6040516102fb9190612b7d565b60405180910390f35b61030c610cfe565b6040516103199190612b40565b60405180910390f35b61033c6004803603810190610337919061202f565b610dbb565b6040516103499190612b62565b60405180910390f35b61036c60048036038101906103679190612240565b610e4f565b005b60007f80ac58cd000000000000000000000000000000000000000000000000000000007bffffffffffffffffffffffffffffffffffffffffffffffffffffffff1916827bffffffffffffffffffffffffffffffffffffffffffffffffffffffff1916148061043957507f5b5e139f000000000000000000000000000000000000000000000000000000007bffffffffffffffffffffffffffffffffffffffffffffffffffffffff1916827bffffffffffffffffffffffffffffffffffffffffffffffffffffffff1916145b80610449575061044882611303565b5b9050919050565b60606000805461045f90613083565b80601f016020809104026020016040519081016040528092919081815260200182805461048b90613083565b80156104d85780601f106104ad576101008083540402835291602001916104d8565b820191906000526020600020905b8154815290600101906020018083116104bb57829003601f168201915b5050505050905090565b60006104ed8261136d565b61052c576040517f08c379a000000000000000000000000000000000000000000000000000000000815260040161052390612ceb565b60405180910390fd5b6004600083815260200190815260200160002060009054906101000a900473ffffffffffffffffffffffffffffffffffffffff169050919050565b6000610572826106ff565b90508073ffffffffffffffffffffffffffffffffffffffff168373ffffffffffffffffffffffffffffffffffffffff1614156105e3576040517f08c379a00000000000000000000000000000000000000000000000000000000081526004016105da90612d4b565b60405180910390fd5b8073ffffffffffffffffffffffffffffffffffffffff166106026113d9565b73ffffffffffffffffffffffffffffffffffffffff16148061063157506106308161062b6113d9565b610dbb565b5b610670576040517f08c379a000000000000000000000000000000000000000000000000000000000815260040161066790612c8b565b60405180910390fd5b61067a83836113e1565b505050565b61069061068a6113d9565b8261149a565b6106cf576040517f08c379a00000000000000000000000000000000000000000000000000000000081526004016106c690612d6b565b60405180910390fd5b6106da838383611578565b505050565b6106fa83838360405180602001604052806000815250610bf5565b505050565b6000806002600084815260200190815260200160002060009054906101000a900473ffffffffffffffffffffffffffffffffffffffff169050600073ffffffffffffffffffffffffffffffffffffffff168173ffffffffffffffffffffffffffffffffffffffff1614156107a8576040517f08c379a000000000000000000000000000000000000000000000000000000000815260040161079f90612ccb565b60405180910390fd5b80915050919050565b60008073ffffffffffffffffffffffffffffffffffffffff168273ffffffffffffffffffffffffffffffffffffffff161415610822576040517f08c379a000000000000000000000000000000000000000000000000000000000815260040161081990612cab565b60405180910390fd5b600360008373ffffffffffffffffffffffffffffffffffffffff1673ffffffffffffffffffffffffffffffffffffffff168152602001908152602001600020549050919050565b60606006805480602002602001604051908101604052809291908181526020016000905b82821015610a9d57838290600052602060002090600702016040518060e0016040529081600082015481526020016001820180546108ca90613083565b80601f01602080910402602001604051908101604052809291908181526020018280546108f690613083565b80156109435780601f1061091857610100808354040283529160200191610943565b820191906000526020600020905b81548152906001019060200180831161092657829003601f168201915b5050505050815260200160028201805461095c90613083565b80601f016020809104026020016040519081016040528092919081815260200182805461098890613083565b80156109d55780601f106109aa576101008083540402835291602001916109d5565b820191906000526020600020905b8154815290600101906020018083116109b857829003601f168201915b505050505081526020016003820180546109ee90613083565b80601f0160208091040260200160405190810160405280929190818152602001828054610a1a90613083565b8015610a675780601f10610a3c57610100808354040283529160200191610a67565b820191906000526020600020905b815481529060010190602001808311610a4a57829003601f168201915b5050505050815260200160048201548152602001600582015481526020016006820154815250508152602001906001019061088d565b50505050905090565b606060018054610ab590613083565b80601f0160208091040260200160405190810160405280929190818152602001828054610ae190613083565b8015610b2e5780601f10610b0357610100808354040283529160200191610b2e565b820191906000526020600020905b815481529060010190602001808311610b1157829003601f168201915b5050505050905090565b6000600760009054906101000a900473ffffffffffffffffffffffffffffffffffffffff1673ffffffffffffffffffffffffffffffffffffffff1663459dcbc36040518163ffffffff1660e01b815260040160206040518083038186803b158015610ba257600080fd5b505afa158015610bb6573d6000803e3d6000fd5b505050506040513d601f19601f82011682018060405250810190610bda9190612269565b905090565b610bf1610bea6113d9565b83836117d4565b5050565b610c06610c006113d9565b8361149a565b610c45576040517f08c379a0000000000000000000000000000000000000000000000000000000008152600401610c3c90612d6b565b60405180910390fd5b610c5184848484611941565b50505050565b6060610c628261136d565b610ca1576040517f08c379a0000000000000000000000000000000000000000000000000000000008152600401610c9890612d2b565b60405180910390fd5b6000610cab61199d565b90506000815111610ccb5760405180602001604052806000815250610cf6565b80610cd5846119b4565b604051602001610ce6929190612a69565b6040516020818303038152906040525b915050919050565b60606000339050600760009054906101000a900473ffffffffffffffffffffffffffffffffffffffff1673ffffffffffffffffffffffffffffffffffffffff16638c017572826040518263ffffffff1660e01b8152600401610d609190612a8d565b60006040518083038186803b158015610d7857600080fd5b505afa158015610d8c573d6000803e3d6000fd5b505050506040513d6000823e3d601f19601f82011682018060405250810190610db591906121ad565b91505090565b6000600560008473ffffffffffffffffffffffffffffffffffffffff1673ffffffffffffffffffffffffffffffffffffffff16815260200190815260200160002060008373ffffffffffffffffffffffffffffffffffffffff1673ffffffffffffffffffffffffffffffffffffffff16815260200190815260200160002060009054906101000a900460ff16905092915050565b60008110158015610e64575060068054905081105b610ea3576040517f08c379a0000000000000000000000000000000000000000000000000000000008152600401610e9a90612beb565b60405180910390fd5b600060068281548110610edf577f4e487b7100000000000000000000000000000000000000000000000000000000600052603260045260246000fd5b90600052602060002090600702016040518060e001604052908160008201548152602001600182018054610f1290613083565b80601f0160208091040260200160405190810160405280929190818152602001828054610f3e90613083565b8015610f8b5780601f10610f6057610100808354040283529160200191610f8b565b820191906000526020600020905b815481529060010190602001808311610f6e57829003601f168201915b50505050508152602001600282018054610fa490613083565b80601f0160208091040260200160405190810160405280929190818152602001828054610fd090613083565b801561101d5780601f10610ff25761010080835404028352916020019161101d565b820191906000526020600020905b81548152906001019060200180831161100057829003601f168201915b5050505050815260200160038201805461103690613083565b80601f016020809104026020016040519081016040528092919081815260200182805461106290613083565b80156110af5780601f10611084576101008083540402835291602001916110af565b820191906000526020600020905b81548152906001019060200180831161109257829003601f168201915b50505050508152602001600482015481526020016005820154815260200160068201548152505090506000600760009054906101000a900473ffffffffffffffffffffffffffffffffffffffff1673ffffffffffffffffffffffffffffffffffffffff1663bf5e461a836040518263ffffffff1660e01b81526004016111359190612d8b565b602060405180830381600087803b15801561114f57600080fd5b505af1158015611163573d6000803e3d6000fd5b505050506040513d601f19601f820116820180604052508101906111879190612269565b90507f0a099f8e216f13520813dc3f138a373cd708fc4733f7275098c9cfb7424dd3cc338285856040516111be9493929190612af4565b60405180910390a1505050565b611261816040516024016111df9190612b7d565b6040516020818303038152906040527f41304fac000000000000000000000000000000000000000000000000000000007bffffffffffffffffffffffffffffffffffffffffffffffffffffffff19166020820180517bffffffffffffffffffffffffffffffffffffffffffffffffffffffff8381831617835250505050611b61565b50565b6112fe83838360405160240161127c93929190612b9f565b6040516020818303038152906040527f2ced7cef000000000000000000000000000000000000000000000000000000007bffffffffffffffffffffffffffffffffffffffffffffffffffffffff19166020820180517bffffffffffffffffffffffffffffffffffffffffffffffffffffffff8381831617835250505050611b61565b505050565b60007f01ffc9a7000000000000000000000000000000000000000000000000000000007bffffffffffffffffffffffffffffffffffffffffffffffffffffffff1916827bffffffffffffffffffffffffffffffffffffffffffffffffffffffff1916149050919050565b60008073ffffffffffffffffffffffffffffffffffffffff166002600084815260200190815260200160002060009054906101000a900473ffffffffffffffffffffffffffffffffffffffff1673ffffffffffffffffffffffffffffffffffffffff1614159050919050565b600033905090565b816004600083815260200190815260200160002060006101000a81548173ffffffffffffffffffffffffffffffffffffffff021916908373ffffffffffffffffffffffffffffffffffffffff160217905550808273ffffffffffffffffffffffffffffffffffffffff16611454836106ff565b73ffffffffffffffffffffffffffffffffffffffff167f8c5be1e5ebec7d5bd14f71427d1e84f3dd0314c0f7b2291e5b200ac8c7c3b92560405160405180910390a45050565b60006114a58261136d565b6114e4576040517f08c379a00000000000000000000000000000000000000000000000000000000081526004016114db90612c6b565b60405180910390fd5b60006114ef836106ff565b90508073ffffffffffffffffffffffffffffffffffffffff168473ffffffffffffffffffffffffffffffffffffffff16148061155e57508373ffffffffffffffffffffffffffffffffffffffff16611546846104e2565b73ffffffffffffffffffffffffffffffffffffffff16145b8061156f575061156e8185610dbb565b5b91505092915050565b8273ffffffffffffffffffffffffffffffffffffffff16611598826106ff565b73ffffffffffffffffffffffffffffffffffffffff16146115ee576040517f08c379a00000000000000000000000000000000000000000000000000000000081526004016115e590612d0b565b60405180910390fd5b600073ffffffffffffffffffffffffffffffffffffffff168273ffffffffffffffffffffffffffffffffffffffff16141561165e576040517f08c379a000000000000000000000000000000000000000000000000000000000815260040161165590612c2b565b60405180910390fd5b611669838383611b8a565b6116746000826113e1565b6001600360008573ffffffffffffffffffffffffffffffffffffffff1673ffffffffffffffffffffffffffffffffffffffff16815260200190815260200160002060008282546116c49190612f99565b925050819055506001600360008473ffffffffffffffffffffffffffffffffffffffff1673ffffffffffffffffffffffffffffffffffffffff168152602001908152602001600020600082825461171b9190612f12565b92505081905550816002600083815260200190815260200160002060006101000a81548173ffffffffffffffffffffffffffffffffffffffff021916908373ffffffffffffffffffffffffffffffffffffffff160217905550808273ffffffffffffffffffffffffffffffffffffffff168473ffffffffffffffffffffffffffffffffffffffff167fddf252ad1be2c89b69c2b068fc378daa952ba7f163c4a11628f55a4df523b3ef60405160405180910390a4505050565b8173ffffffffffffffffffffffffffffffffffffffff168373ffffffffffffffffffffffffffffffffffffffff161415611843576040517f08c379a000000000000000000000000000000000000000000000000000000000815260040161183a90612c4b565b60405180910390fd5b80600560008573ffffffffffffffffffffffffffffffffffffffff1673ffffffffffffffffffffffffffffffffffffffff16815260200190815260200160002060008473ffffffffffffffffffffffffffffffffffffffff1673ffffffffffffffffffffffffffffffffffffffff16815260200190815260200160002060006101000a81548160ff0219169083151502179055508173ffffffffffffffffffffffffffffffffffffffff168373ffffffffffffffffffffffffffffffffffffffff167f17307eab39ab6107e8899845ad3d59bd9653f200f220920489ca2b5937696c31836040516119349190612b62565b60405180910390a3505050565b61194c848484611578565b61195884848484611b8f565b611997576040517f08c379a000000000000000000000000000000000000000000000000000000000815260040161198e90612c0b565b60405180910390fd5b50505050565b606060405180602001604052806000815250905090565b606060008214156119fc576040518060400160405280600181526020017f30000000000000000000000000000000000000000000000000000000000000008152509050611b5c565b600082905060005b60008214611a2e578080611a17906130b5565b915050600a82611a279190612f68565b9150611a04565b60008167ffffffffffffffff811115611a70577f4e487b7100000000000000000000000000000000000000000000000000000000600052604160045260246000fd5b6040519080825280601f01601f191660200182016040528015611aa25781602001600182028036833780820191505090505b5090505b60008514611b5557600182611abb9190612f99565b9150600a85611aca91906130fe565b6030611ad69190612f12565b60f81b818381518110611b12577f4e487b7100000000000000000000000000000000000000000000000000000000600052603260045260246000fd5b60200101907effffffffffffffffffffffffffffffffffffffffffffffffffffffffffffff1916908160001a905350600a85611b4e9190612f68565b9450611aa6565b8093505050505b919050565b60008151905060006a636f6e736f6c652e6c6f679050602083016000808483855afa5050505050565b505050565b6000611bb08473ffffffffffffffffffffffffffffffffffffffff16611d26565b15611d19578373ffffffffffffffffffffffffffffffffffffffff1663150b7a02611bd96113d9565b8786866040518563ffffffff1660e01b8152600401611bfb9493929190612aa8565b602060405180830381600087803b158015611c1557600080fd5b505af1925050508015611c4657506040513d601f19601f82011682018060405250810190611c439190612217565b60015b611cc9573d8060008114611c76576040519150601f19603f3d011682016040523d82523d6000602084013e611c7b565b606091505b50600081511415611cc1576040517f08c379a0000000000000000000000000000000000000000000000000000000008152600401611cb890612c0b565b60405180910390fd5b805181602001fd5b63150b7a0260e01b7bffffffffffffffffffffffffffffffffffffffffffffffffffffffff1916817bffffffffffffffffffffffffffffffffffffffffffffffffffffffff191614915050611d1e565b600190505b949350505050565b600080823b905060008111915050919050565b6000611d4c611d4784612df9565b612dc8565b9050808382526020820190508260005b85811015611d8c5781518501611d728882611ee4565b845260208401935060208301925050600181019050611d5c565b5050509392505050565b6000611da9611da484612e25565b612dc8565b905082815260208101848484011115611dc157600080fd5b611dcc848285613041565b509392505050565b6000611de7611de284612e55565b612dc8565b905082815260208101848484011115611dff57600080fd5b611e0a848285613050565b509392505050565b600081359050611e21816131fc565b92915050565b600082601f830112611e3857600080fd5b8151611e48848260208601611d39565b91505092915050565b600081359050611e6081613213565b92915050565b600081359050611e758161322a565b92915050565b600081519050611e8a8161322a565b92915050565b600082601f830112611ea157600080fd5b8135611eb1848260208601611d96565b91505092915050565b600082601f830112611ecb57600080fd5b8151611edb848260208601611dd4565b91505092915050565b600060e08284031215611ef657600080fd5b611f0060e0612dc8565b90506000611f1084828501611ff1565b600083015250602082015167ffffffffffffffff811115611f3057600080fd5b611f3c84828501611eba565b602083015250604082015167ffffffffffffffff811115611f5c57600080fd5b611f6884828501611eba565b604083015250606082015167ffffffffffffffff811115611f8857600080fd5b611f9484828501611eba565b6060830152506080611fa884828501611ff1565b60808301525060a0611fbc84828501611ff1565b60a08301525060c0611fd084828501611ff1565b60c08301525092915050565b600081359050611feb81613241565b92915050565b60008151905061200081613241565b92915050565b60006020828403121561201857600080fd5b600061202684828501611e12565b91505092915050565b6000806040838503121561204257600080fd5b600061205085828601611e12565b925050602061206185828601611e12565b9150509250929050565b60008060006060848603121561208057600080fd5b600061208e86828701611e12565b935050602061209f86828701611e12565b92505060406120b086828701611fdc565b9150509250925092565b600080600080608085870312156120d057600080fd5b60006120de87828801611e12565b94505060206120ef87828801611e12565b935050604061210087828801611fdc565b925050606085013567ffffffffffffffff81111561211d57600080fd5b61212987828801611e90565b91505092959194509250565b6000806040838503121561214857600080fd5b600061215685828601611e12565b925050602061216785828601611e51565b9150509250929050565b6000806040838503121561218457600080fd5b600061219285828601611e12565b92505060206121a385828601611fdc565b9150509250929050565b6000602082840312156121bf57600080fd5b600082015167ffffffffffffffff8111156121d957600080fd5b6121e584828501611e27565b91505092915050565b60006020828403121561220057600080fd5b600061220e84828501611e66565b91505092915050565b60006020828403121561222957600080fd5b600061223784828501611e7b565b91505092915050565b60006020828403121561225257600080fd5b600061226084828501611fdc565b91505092915050565b60006020828403121561227b57600080fd5b600061228984828501611ff1565b91505092915050565b600061229e83836128f7565b905092915050565b6122af81612fcd565b82525050565b60006122c082612e95565b6122ca8185612ec3565b9350836020820285016122dc85612e85565b8060005b8581101561231857848403895281516122f98582612292565b945061230483612eb6565b925060208a019950506001810190506122e0565b50829750879550505050505092915050565b61233381612fdf565b82525050565b600061234482612ea0565b61234e8185612ed4565b935061235e818560208601613050565b612367816131eb565b840191505092915050565b600061237d82612eab565b6123878185612ee5565b9350612397818560208601613050565b6123a0816131eb565b840191505092915050565b60006123b682612eab565b6123c08185612ef6565b93506123d0818560208601613050565b6123d9816131eb565b840191505092915050565b60006123ef82612eab565b6123f98185612f07565b9350612409818560208601613050565b80840191505092915050565b6000612422601e83612ef6565b91507f43686172616374657220696e646578206f7574206f6620626f756e64732e00006000830152602082019050919050565b6000612462603283612ef6565b91507f4552433732313a207472616e7366657220746f206e6f6e20455243373231526560008301527f63656976657220696d706c656d656e74657200000000000000000000000000006020830152604082019050919050565b60006124c8602483612ef6565b91507f4552433732313a207472616e7366657220746f20746865207a65726f2061646460008301527f72657373000000000000000000000000000000000000000000000000000000006020830152604082019050919050565b600061252e601983612ef6565b91507f4552433732313a20617070726f766520746f2063616c6c6572000000000000006000830152602082019050919050565b600061256e602c83612ef6565b91507f4552433732313a206f70657261746f7220717565727920666f72206e6f6e657860008301527f697374656e7420746f6b656e00000000000000000000000000000000000000006020830152604082019050919050565b60006125d4603883612ef6565b91507f4552433732313a20617070726f76652063616c6c6572206973206e6f74206f7760008301527f6e6572206e6f7220617070726f76656420666f7220616c6c00000000000000006020830152604082019050919050565b600061263a602a83612ef6565b91507f4552433732313a2062616c616e636520717565727920666f7220746865207a6560008301527f726f2061646472657373000000000000000000000000000000000000000000006020830152604082019050919050565b60006126a0602983612ef6565b91507f4552433732313a206f776e657220717565727920666f72206e6f6e657869737460008301527f656e7420746f6b656e00000000000000000000000000000000000000000000006020830152604082019050919050565b6000612706602c83612ef6565b91507f4552433732313a20617070726f76656420717565727920666f72206e6f6e657860008301527f697374656e7420746f6b656e00000000000000000000000000000000000000006020830152604082019050919050565b600061276c602983612ef6565b91507f4552433732313a207472616e73666572206f6620746f6b656e2074686174206960008301527f73206e6f74206f776e00000000000000000000000000000000000000000000006020830152604082019050919050565b60006127d2602f83612ef6565b91507f4552433732314d657461646174613a2055524920717565727920666f72206e6f60008301527f6e6578697374656e7420746f6b656e00000000000000000000000000000000006020830152604082019050919050565b6000612838602183612ef6565b91507f4552433732313a20617070726f76616c20746f2063757272656e74206f776e6560008301527f72000000000000000000000000000000000000000000000000000000000000006020830152604082019050919050565b600061289e603183612ef6565b91507f4552433732313a207472616e736665722063616c6c6572206973206e6f74206f60008301527f776e6572206e6f7220617070726f7665640000000000000000000000000000006020830152604082019050919050565b600060e08301600083015161290f6000860182612a4b565b50602083015184820360208601526129278282612372565b915050604083015184820360408601526129418282612372565b9150506060830151848203606086015261295b8282612372565b91505060808301516129706080860182612a4b565b5060a083015161298360a0860182612a4b565b5060c083015161299660c0860182612a4b565b508091505092915050565b600060e0830160008301516129b96000860182612a4b565b50602083015184820360208601526129d18282612372565b915050604083015184820360408601526129eb8282612372565b91505060608301518482036060860152612a058282612372565b9150506080830151612a1a6080860182612a4b565b5060a0830151612a2d60a0860182612a4b565b5060c0830151612a4060c0860182612a4b565b508091505092915050565b612a5481613037565b82525050565b612a6381613037565b82525050565b6000612a7582856123e4565b9150612a8182846123e4565b91508190509392505050565b6000602082019050612aa260008301846122a6565b92915050565b6000608082019050612abd60008301876122a6565b612aca60208301866122a6565b612ad76040830185612a5a565b8181036060830152612ae98184612339565b905095945050505050565b6000608082019050612b0960008301876122a6565b612b166020830186612a5a565b612b236040830185612a5a565b8181036060830152612b3581846129a1565b905095945050505050565b60006020820190508181036000830152612b5a81846122b5565b905092915050565b6000602082019050612b77600083018461232a565b92915050565b60006020820190508181036000830152612b9781846123ab565b905092915050565b60006060820190508181036000830152612bb981866123ab565b90508181036020830152612bcd81856123ab565b90508181036040830152612be181846123ab565b9050949350505050565b60006020820190508181036000830152612c0481612415565b9050919050565b60006020820190508181036000830152612c2481612455565b9050919050565b60006020820190508181036000830152612c44816124bb565b9050919050565b60006020820190508181036000830152612c6481612521565b9050919050565b60006020820190508181036000830152612c8481612561565b9050919050565b60006020820190508181036000830152612ca4816125c7565b9050919050565b60006020820190508181036000830152612cc48161262d565b9050919050565b60006020820190508181036000830152612ce481612693565b9050919050565b60006020820190508181036000830152612d04816126f9565b9050919050565b60006020820190508181036000830152612d248161275f565b9050919050565b60006020820190508181036000830152612d44816127c5565b9050919050565b60006020820190508181036000830152612d648161282b565b9050919050565b60006020820190508181036000830152612d8481612891565b9050919050565b60006020820190508181036000830152612da581846129a1565b905092915050565b6000602082019050612dc26000830184612a5a565b92915050565b6000604051905081810181811067ffffffffffffffff82111715612def57612dee6131bc565b5b8060405250919050565b600067ffffffffffffffff821115612e1457612e136131bc565b5b602082029050602081019050919050565b600067ffffffffffffffff821115612e4057612e3f6131bc565b5b601f19601f8301169050602081019050919050565b600067ffffffffffffffff821115612e7057612e6f6131bc565b5b601f19601f8301169050602081019050919050565b6000819050602082019050919050565b600081519050919050565b600081519050919050565b600081519050919050565b6000602082019050919050565b600082825260208201905092915050565b600082825260208201905092915050565b600082825260208201905092915050565b600082825260208201905092915050565b600081905092915050565b6000612f1d82613037565b9150612f2883613037565b9250827fffffffffffffffffffffffffffffffffffffffffffffffffffffffffffffffff03821115612f5d57612f5c61312f565b5b828201905092915050565b6000612f7382613037565b9150612f7e83613037565b925082612f8e57612f8d61315e565b5b828204905092915050565b6000612fa482613037565b9150612faf83613037565b925082821015612fc257612fc161312f565b5b828203905092915050565b6000612fd882613017565b9050919050565b60008115159050919050565b60007fffffffff0000000000000000000000000000000000000000000000000000000082169050919050565b600073ffffffffffffffffffffffffffffffffffffffff82169050919050565b6000819050919050565b82818337600083830152505050565b60005b8381101561306e578082015181840152602081019050613053565b8381111561307d576000848401525b50505050565b6000600282049050600182168061309b57607f821691505b602082108114156130af576130ae61318d565b5b50919050565b60006130c082613037565b91507fffffffffffffffffffffffffffffffffffffffffffffffffffffffffffffffff8214156130f3576130f261312f565b5b600182019050919050565b600061310982613037565b915061311483613037565b9250826131245761312361315e565b5b828206905092915050565b7f4e487b7100000000000000000000000000000000000000000000000000000000600052601160045260246000fd5b7f4e487b7100000000000000000000000000000000000000000000000000000000600052601260045260246000fd5b7f4e487b7100000000000000000000000000000000000000000000000000000000600052602260045260246000fd5b7f4e487b7100000000000000000000000000000000000000000000000000000000600052604160045260246000fd5b6000601f19601f8301169050919050565b61320581612fcd565b811461321057600080fd5b50565b61321c81612fdf565b811461322757600080fd5b50565b61323381612feb565b811461323e57600080fd5b50565b61324a81613037565b811461325557600080fd5b5056fea2646970667358221220db4f3944cebd4bd4571a1645fea664b91d81ddb34e49e83f262db0c1fb16745c64736f6c63430008000033",
  "linkReferences": {},
  "deployedLinkReferences": {}
}