{
  "_format": "hh-sol-artifact-1",
  "contractName": "Marketplace",
  "sourceName": "contracts/Marketplace.sol",
  "abi": [
    {
      "inputs": [
        {
          "internalType": "contract CryptoFacesNFT",
          "name": "_nft",
          "type": "address"
        }
      ],
      "stateMutability": "nonpayable",
      "type": "constructor"
    },
    {
      "anonymous": false,
      "inputs": [
        {
          "indexed": false,
          "internalType": "string",
          "name": "TxType",
          "type": "string"
        },
        {
          "indexed": false,
          "internalType": "address",
          "name": "owner",
          "type": "address"
        },
        {
          "indexed": false,
          "internalType": "uint256",
          "name": "tokenId",
          "type": "uint256"
        }
      ],
      "name": "MarketTransaction",
      "type": "event"
    },
    {
      "inputs": [
        {
          "internalType": "uint256",
          "name": "_tokenId",
          "type": "uint256"
        }
      ],
      "name": "buyToken",
      "outputs": [],
      "stateMutability": "payable",
      "type": "function"
    },
    {
      "inputs": [
        {
          "internalType": "uint256",
          "name": "_price",
          "type": "uint256"
        },
        {
          "internalType": "uint256",
          "name": "_tokenId",
          "type": "uint256"
        }
      ],
      "name": "createOffer",
      "outputs": [],
      "stateMutability": "nonpayable",
      "type": "function"
    },
    {
      "inputs": [],
      "name": "getContractAddress",
      "outputs": [
        {
          "internalType": "address",
          "name": "",
          "type": "address"
        }
      ],
      "stateMutability": "view",
      "type": "function"
    },
    {
      "inputs": [
        {
          "internalType": "uint256",
          "name": "_tokenId",
          "type": "uint256"
        }
      ],
      "name": "getOffer",
      "outputs": [
        {
          "internalType": "address",
          "name": "seller",
          "type": "address"
        },
        {
          "internalType": "uint256",
          "name": "price",
          "type": "uint256"
        },
        {
          "internalType": "uint256",
          "name": "index",
          "type": "uint256"
        },
        {
          "internalType": "uint256",
          "name": "tokenId",
          "type": "uint256"
        },
        {
          "internalType": "bool",
          "name": "active",
          "type": "bool"
        }
      ],
      "stateMutability": "view",
      "type": "function"
    },
    {
      "inputs": [],
      "name": "getOffers",
      "outputs": [
        {
          "components": [
            {
              "internalType": "address payable",
              "name": "seller",
              "type": "address"
            },
            {
              "internalType": "uint256",
              "name": "price",
              "type": "uint256"
            },
            {
              "internalType": "uint256",
              "name": "index",
              "type": "uint256"
            },
            {
              "internalType": "uint256",
              "name": "tokenId",
              "type": "uint256"
            },
            {
              "internalType": "bool",
              "name": "active",
              "type": "bool"
            }
          ],
          "internalType": "struct Marketplace.Offer[]",
          "name": "",
          "type": "tuple[]"
        }
      ],
      "stateMutability": "view",
      "type": "function"
    },
    {
      "inputs": [],
      "name": "getOffersIds",
      "outputs": [
        {
          "internalType": "uint256[]",
          "name": "",
          "type": "uint256[]"
        }
      ],
      "stateMutability": "view",
      "type": "function"
    },
    {
      "inputs": [
        {
          "internalType": "uint256",
          "name": "_tokenId",
          "type": "uint256"
        }
      ],
      "name": "removeOffer",
      "outputs": [],
      "stateMutability": "nonpayable",
      "type": "function"
    }
  ],
  "bytecode": "0x60806040523480156200001157600080fd5b5060405162001fa838038062001fa8833981810160405281019062000037919062000095565b806000806101000a81548173ffffffffffffffffffffffffffffffffffffffff021916908373ffffffffffffffffffffffffffffffffffffffff1602179055505062000123565b6000815190506200008f8162000109565b92915050565b600060208284031215620000a857600080fd5b6000620000b8848285016200007e565b91505092915050565b6000620000ce82620000e9565b9050919050565b6000620000e282620000c1565b9050919050565b600073ffffffffffffffffffffffffffffffffffffffff82169050919050565b6200011481620000d5565b81146200012057600080fd5b50565b611e7580620001336000396000f3fe6080604052600436106100705760003560e01c80633ee992ee1161004e5780633ee992ee146100e55780634579268a1461011057806395a0f9c714610151578063e8e92ccf1461017a57610070565b80631afed875146100755780632d296bf11461009e57806332a2c5d0146100ba575b600080fd5b34801561008157600080fd5b5061009c60048036038101906100979190611408565b6101a5565b005b6100b860048036038101906100b391906113df565b610267565b005b3480156100c657600080fd5b506100cf61042a565b6040516100dc91906119c5565b60405180910390f35b3480156100f157600080fd5b506100fa610432565b6040516101079190611a6a565b60405180910390f35b34801561011c57600080fd5b50610137600480360381019061013291906113df565b610609565b604051610148959493929190611a17565b60405180910390f35b34801561015d57600080fd5b50610178600480360381019061017391906113df565b6106e5565b005b34801561018657600080fd5b5061018f610816565b60405161019c9190611a8c565b60405180910390f35b6101af33826109cf565b6101ee576040517f08c379a00000000000000000000000000000000000000000000000000000000081526004016101e590611c22565b60405180910390fd5b600015156002600083815260200190815260200160002060040160009054906101000a900460ff16151514610258576040517f08c379a000000000000000000000000000000000000000000000000000000000815260040161024f90611aee565b60405180910390fd5b610263828233610ab0565b5050565b6000600260008381526020019081526020016000206040518060a00160405290816000820160009054906101000a900473ffffffffffffffffffffffffffffffffffffffff1673ffffffffffffffffffffffffffffffffffffffff1673ffffffffffffffffffffffffffffffffffffffff1681526020016001820154815260200160028201548152602001600382015481526020016004820160009054906101000a900460ff16151515158152505090508060200151341461035e576040517f08c379a000000000000000000000000000000000000000000000000000000000815260040161035590611b4a565b60405180910390fd5b3373ffffffffffffffffffffffffffffffffffffffff16816000015173ffffffffffffffffffffffffffffffffffffffff1614156103d1576040517f08c379a00000000000000000000000000000000000000000000000000000000081526004016103c890611c02565b60405180910390fd5b60011515816080015115151461041c576040517f08c379a000000000000000000000000000000000000000000000000000000000815260040161041390611ace565b60405180910390fd5b6104268233610c87565b5050565b600030905090565b60606000600180549050905060008167ffffffffffffffff811115610480577f4e487b7100000000000000000000000000000000000000000000000000000000600052604160045260246000fd5b6040519080825280602002602001820160405280156104b957816020015b6104a6611345565b81526020019060019003908161049e5790505b50905060005b828110156106005760018181548110610501577f4e487b7100000000000000000000000000000000000000000000000000000000600052603260045260246000fd5b90600052602060002090600502016040518060a00160405290816000820160009054906101000a900473ffffffffffffffffffffffffffffffffffffffff1673ffffffffffffffffffffffffffffffffffffffff1673ffffffffffffffffffffffffffffffffffffffff1681526020016001820154815260200160028201548152602001600382015481526020016004820160009054906101000a900460ff1615151515815250508282815181106105e2577f4e487b7100000000000000000000000000000000000000000000000000000000600052603260045260246000fd5b602002602001018190525080806105f890611d99565b9150506104bf565b50809250505090565b600080600080600080600260008881526020019081526020016000209050600115158160040160009054906101000a900460ff1615151461067f576040517f08c379a000000000000000000000000000000000000000000000000000000000815260040161067690611aae565b60405180910390fd5b8060000160009054906101000a900473ffffffffffffffffffffffffffffffffffffffff169550858160010154955085826002015495508583600301549550858460040160009054906101000a900460ff16955095509550955095505091939590929450565b6000600260008381526020019081526020016000206040518060a00160405290816000820160009054906101000a900473ffffffffffffffffffffffffffffffffffffffff1673ffffffffffffffffffffffffffffffffffffffff1673ffffffffffffffffffffffffffffffffffffffff1681526020016001820154815260200160028201548152602001600382015481526020016004820160009054906101000a900460ff16151515158152505090503373ffffffffffffffffffffffffffffffffffffffff16816000015173ffffffffffffffffffffffffffffffffffffffff1614610808576040517f08c379a00000000000000000000000000000000000000000000000000000000081526004016107ff90611c42565b60405180910390fd5b6108128233610ecf565b5050565b60606000600180549050905060008114156108a357600067ffffffffffffffff81111561086c577f4e487b7100000000000000000000000000000000000000000000000000000000600052604160045260246000fd5b60405190808252806020026020018201604052801561089a5781602001602082028036833780820191505090505b509150506109cc565b60008167ffffffffffffffff8111156108e5577f4e487b7100000000000000000000000000000000000000000000000000000000600052604160045260246000fd5b6040519080825280602002602001820160405280156109135781602001602082028036833780820191505090505b50905060005b828110156109c5576001818154811061095b577f4e487b7100000000000000000000000000000000000000000000000000000000600052603260045260246000fd5b9060005260206000209060050201600301548282815181106109a6577f4e487b7100000000000000000000000000000000000000000000000000000000600052603260045260246000fd5b60200260200101818152505080806109bd90611d99565b915050610919565b5080925050505b90565b60008273ffffffffffffffffffffffffffffffffffffffff1660008054906101000a900473ffffffffffffffffffffffffffffffffffffffff1673ffffffffffffffffffffffffffffffffffffffff16636352211e846040518263ffffffff1660e01b8152600401610a419190611c62565b60206040518083038186803b158015610a5957600080fd5b505afa158015610a6d573d6000803e3d6000fd5b505050506040513d601f19601f82011682018060405250810190610a9191906113b6565b73ffffffffffffffffffffffffffffffffffffffff1614905092915050565b60006040518060a001604052808373ffffffffffffffffffffffffffffffffffffffff1681526020018581526020016001805490508152602001848152602001600115158152509050806002600085815260200190815260200160002060008201518160000160006101000a81548173ffffffffffffffffffffffffffffffffffffffff021916908373ffffffffffffffffffffffffffffffffffffffff16021790555060208201518160010155604082015181600201556060820151816003015560808201518160040160006101000a81548160ff021916908315150217905550905050600181908060018154018082558091505060019003906000526020600020906005020160009091909190915060008201518160000160006101000a81548173ffffffffffffffffffffffffffffffffffffffff021916908373ffffffffffffffffffffffffffffffffffffffff16021790555060208201518160010155604082015181600201556060820151816003015560808201518160040160006101000a81548160ff02191690831515021790555050507fd99e4fad9ad6313b1feb588fa8e605e3a9873172f2024330c35dd2b4041a43863384604051610c79929190611b0e565b60405180910390a150505050565b6000600260008481526020019081526020016000206040518060a00160405290816000820160009054906101000a900473ffffffffffffffffffffffffffffffffffffffff1673ffffffffffffffffffffffffffffffffffffffff1673ffffffffffffffffffffffffffffffffffffffff1681526020016001820154815260200160028201548152602001600382015481526020016004820160009054906101000a900460ff161515151581525050905060008160000151905060008260200151905060008273ffffffffffffffffffffffffffffffffffffffff1682604051610d70906119b0565b60006040518083038185875af1925050503d8060008114610dad576040519150601f19603f3d011682016040523d82523d6000602084013e610db2565b606091505b5050905080610df6576040517f08c379a0000000000000000000000000000000000000000000000000000000008152600401610ded90611be2565b60405180910390fd5b60008054906101000a900473ffffffffffffffffffffffffffffffffffffffff1673ffffffffffffffffffffffffffffffffffffffff166323b872dd8487896040518463ffffffff1660e01b8152600401610e53939291906119e0565b600060405180830381600087803b158015610e6d57600080fd5b505af1158015610e81573d6000803e3d6000fd5b50505050610e8e866106e5565b7fd99e4fad9ad6313b1feb588fa8e605e3a9873172f2024330c35dd2b4041a43863387604051610ebf929190611b6a565b60405180910390a1505050505050565b600060026000848152602001908152602001600020600201549050600060018080549050610efd9190611d0b565b905060008111156111f95760018181548110610f42577f4e487b7100000000000000000000000000000000000000000000000000000000600052603260045260246000fd5b906000526020600020906005020160018381548110610f8a577f4e487b7100000000000000000000000000000000000000000000000000000000600052603260045260246000fd5b90600052602060002090600502016000820160009054906101000a900473ffffffffffffffffffffffffffffffffffffffff168160000160006101000a81548173ffffffffffffffffffffffffffffffffffffffff021916908373ffffffffffffffffffffffffffffffffffffffff1602179055506001820154816001015560028201548160020155600382015481600301556004820160009054906101000a900460ff168160040160006101000a81548160ff0219169083151502179055509050508160018381548110611088577f4e487b7100000000000000000000000000000000000000000000000000000000600052603260045260246000fd5b906000526020600020906005020160020181905550600182815481106110d7577f4e487b7100000000000000000000000000000000000000000000000000000000600052603260045260246000fd5b90600052602060002090600502016002600060018581548110611123577f4e487b7100000000000000000000000000000000000000000000000000000000600052603260045260246000fd5b90600052602060002090600502016003015481526020019081526020016000206000820160009054906101000a900473ffffffffffffffffffffffffffffffffffffffff168160000160006101000a81548173ffffffffffffffffffffffffffffffffffffffff021916908373ffffffffffffffffffffffffffffffffffffffff1602179055506001820154816001015560028201548160020155600382015481600301556004820160009054906101000a900460ff168160040160006101000a81548160ff0219169083151502179055509050505b6001805480611231577f4e487b7100000000000000000000000000000000000000000000000000000000600052603160045260246000fd5b6001900381819060005260206000209060050201600080820160006101000a81549073ffffffffffffffffffffffffffffffffffffffff02191690556001820160009055600282016000905560038201600090556004820160006101000a81549060ff02191690555050905560026000858152602001908152602001600020600080820160006101000a81549073ffffffffffffffffffffffffffffffffffffffff02191690556001820160009055600282016000905560038201600090556004820160006101000a81549060ff021916905550507fd99e4fad9ad6313b1feb588fa8e605e3a9873172f2024330c35dd2b4041a43868385604051611337929190611ba6565b60405180910390a150505050565b6040518060a00160405280600073ffffffffffffffffffffffffffffffffffffffff1681526020016000815260200160008152602001600081526020016000151581525090565b60008151905061139b81611e11565b92915050565b6000813590506113b081611e28565b92915050565b6000602082840312156113c857600080fd5b60006113d68482850161138c565b91505092915050565b6000602082840312156113f157600080fd5b60006113ff848285016113a1565b91505092915050565b6000806040838503121561141b57600080fd5b6000611429858286016113a1565b925050602061143a858286016113a1565b9150509250929050565b6000611450838361192a565b60a08301905092915050565b60006114688383611992565b60208301905092915050565b61147d81611d51565b82525050565b61148c81611d3f565b82525050565b600061149d82611c9d565b6114a78185611ccd565b93506114b283611c7d565b8060005b838110156114e35781516114ca8882611444565b97506114d583611cb3565b9250506001810190506114b6565b5085935050505092915050565b60006114fb82611ca8565b6115058185611cde565b935061151083611c8d565b8060005b83811015611541578151611528888261145c565b975061153383611cc0565b925050600181019050611514565b5085935050505092915050565b61155781611d63565b82525050565b61156681611d63565b82525050565b6000611579603483611cfa565b91507f4d61726b6574706c6163653a205468657265206973206e6f206163746976652060008301527f6f6666657220666f72207468697320746f6b656e0000000000000000000000006020830152604082019050919050565b60006115df601083611cfa565b91507f4e6f20616374697665206f7264657273000000000000000000000000000000006000830152602082019050919050565b600061161f602283611cfa565b91507f54686572652069732063757272656e746c7920616e20616374697665206f666660008301527f65720000000000000000000000000000000000000000000000000000000000006020830152604082019050919050565b6000611685600c83611cfa565b91507f437265617465206f6666657200000000000000000000000000000000000000006000830152602082019050919050565b60006116c5601683611cfa565b91507f54686520707269636520646f65736e74206d61746368000000000000000000006000830152602082019050919050565b6000611705600383611cfa565b91507f42757900000000000000000000000000000000000000000000000000000000006000830152602082019050919050565b6000611745600c83611cfa565b91507f52656d6f7665206f6666657200000000000000000000000000000000000000006000830152602082019050919050565b6000611785602f83611cfa565b91507f4d61726b6574706c6163653a204661696c656420746f2073656e642066756e6460008301527f7320746f207468652073656c6c657200000000000000000000000000000000006020830152604082019050919050565b60006117eb600083611cef565b9150600082019050919050565b6000611805602683611cfa565b91507f4d61726b6574706c6163653a2043616e6e6f7420627920796f7572206f776e2060008301527f746f6b656e2100000000000000000000000000000000000000000000000000006020830152604082019050919050565b600061186b602583611cfa565b91507f596f75206d757374206f776e20746865206e667420796f752077616e7420746f60008301527f2073656c6c0000000000000000000000000000000000000000000000000000006020830152604082019050919050565b60006118d1602583611cfa565b91507f596f75206e65656420746f206265207468652073656c6c6572206f662074686160008301527f74206e66740000000000000000000000000000000000000000000000000000006020830152604082019050919050565b60a0820160008201516119406000850182611474565b5060208201516119536020850182611992565b5060408201516119666040850182611992565b5060608201516119796060850182611992565b50608082015161198c608085018261154e565b50505050565b61199b81611d8f565b82525050565b6119aa81611d8f565b82525050565b60006119bb826117de565b9150819050919050565b60006020820190506119da6000830184611483565b92915050565b60006060820190506119f56000830186611483565b611a026020830185611483565b611a0f60408301846119a1565b949350505050565b600060a082019050611a2c6000830188611483565b611a3960208301876119a1565b611a4660408301866119a1565b611a5360608301856119a1565b611a60608083018461155d565b9695505050505050565b60006020820190508181036000830152611a848184611492565b905092915050565b60006020820190508181036000830152611aa681846114f0565b905092915050565b60006020820190508181036000830152611ac78161156c565b9050919050565b60006020820190508181036000830152611ae7816115d2565b9050919050565b60006020820190508181036000830152611b0781611612565b9050919050565b60006060820190508181036000830152611b2781611678565b9050611b366020830185611483565b611b4360408301846119a1565b9392505050565b60006020820190508181036000830152611b63816116b8565b9050919050565b60006060820190508181036000830152611b83816116f8565b9050611b926020830185611483565b611b9f60408301846119a1565b9392505050565b60006060820190508181036000830152611bbf81611738565b9050611bce6020830185611483565b611bdb60408301846119a1565b9392505050565b60006020820190508181036000830152611bfb81611778565b9050919050565b60006020820190508181036000830152611c1b816117f8565b9050919050565b60006020820190508181036000830152611c3b8161185e565b9050919050565b60006020820190508181036000830152611c5b816118c4565b9050919050565b6000602082019050611c7760008301846119a1565b92915050565b6000819050602082019050919050565b6000819050602082019050919050565b600081519050919050565b600081519050919050565b6000602082019050919050565b6000602082019050919050565b600082825260208201905092915050565b600082825260208201905092915050565b600081905092915050565b600082825260208201905092915050565b6000611d1682611d8f565b9150611d2183611d8f565b925082821015611d3457611d33611de2565b5b828203905092915050565b6000611d4a82611d6f565b9050919050565b6000611d5c82611d6f565b9050919050565b60008115159050919050565b600073ffffffffffffffffffffffffffffffffffffffff82169050919050565b6000819050919050565b6000611da482611d8f565b91507fffffffffffffffffffffffffffffffffffffffffffffffffffffffffffffffff821415611dd757611dd6611de2565b5b600182019050919050565b7f4e487b7100000000000000000000000000000000000000000000000000000000600052601160045260246000fd5b611e1a81611d3f565b8114611e2557600080fd5b50565b611e3181611d8f565b8114611e3c57600080fd5b5056fea2646970667358221220a1611d7560179a814b10a4e75fbbc186f3bb3d5e44bfb140a09b3e5492633b7a64736f6c63430008000033",
  "linkReferences": {},
  "deployedLinkReferences": {}
}